21:04:01.121250 IP (tos 0x0, ttl 57, id 21900, offset 0, flags [none], proto TCP (6), length 44)
    10.97.3.165.53910 > 129.97.170.161.8999: Flags [S], cksum 0x8db5 (correct), seq 1557099995, win 2048, options [mss 1460], length 0
	0x0000:  ee7f f2bd d054 5ee9 a589 8efe 0800 4500  .....T^.......E.
	0x0010:  002c 558c 0000 3906 f237 0a61 03a5 8161  .,U...9..7.a...a
	0x0020:  aaa1 d296 2327 5ccf 75db 0000 0000 6002  ....#'\.u.....`.
	0x0030:  0800 8db5 0000 0204 05b4                 ..........
21:04:01.122651 IP (tos 0x0, ttl 47, id 17639, offset 0, flags [none], proto TCP (6), length 44)
    10.97.3.165.53910 > 129.97.170.162.8999: Flags [S], cksum 0x85b4 (correct), seq 1557099995, win 4096, options [mss 1460], length 0
	0x0000:  ee7f f2bd d054 5ee9 a589 8efe 0800 4500  .....T^.......E.
	0x0010:  002c 44e7 0000 2f06 0cdc 0a61 03a5 8161  .,D.../....a...a
	0x0020:  aaa2 d296 2327 5ccf 75db 0000 0000 6002  ....#'\.u.....`.
	0x0030:  1000 85b4 0000 0204 05b4                 ..........
21:04:01.123213 IP (tos 0x0, ttl 58, id 9446, offset 0, flags [none], proto TCP (6), length 44)
    10.97.3.165.53910 > 129.97.170.163.8999: Flags [S], cksum 0x89b3 (correct), seq 1557099995, win 3072, options [mss 1460], length 0
	0x0000:  ee7f f2bd d054 5ee9 a589 8efe 0800 4500  .....T^.......E.
	0x0010:  002c 24e6 0000 3a06 21dc 0a61 03a5 8161  .,$...:.!..a...a
	0x0020:  aaa3 d296 2327 5ccf 75db 0000 0000 6002  ....#'\.u.....`.
	0x0030:  0c00 89b3 0000 0204 05b4                 ..........
21:04:01.123736 IP (tos 0x0, ttl 38, id 834, offset 0, flags [none], proto TCP (6), length 44)
    10.97.3.165.53910 > 129.97.170.164.8999: Flags [S], cksum 0x89b2 (correct), seq 1557099995, win 3072, options [mss 1460], length 0
	0x0000:  ee7f f2bd d054 5ee9 a589 8efe 0800 4500  .....T^.......E.
	0x0010:  002c 0342 0000 2606 577f 0a61 03a5 8161  .,.B..&.W..a...a
	0x0020:  aaa4 d296 2327 5ccf 75db 0000 0000 6002  ....#'\.u.....`.
	0x0030:  0c00 89b2 0000 0204 05b4                 ..........
21:04:01.124254 IP (tos 0x0, ttl 52, id 27669, offset 0, flags [none], proto TCP (6), length 44)
    10.97.3.165.53910 > 129.97.170.165.8999: Flags [S], cksum 0x91b1 (correct), seq 1557099995, win 1024, options [mss 1460], length 0
	0x0000:  ee7f f2bd d054 5ee9 a589 8efe 0800 4500  .....T^.......E.
	0x0010:  002c 6c15 0000 3406 e0aa 0a61 03a5 8161  .,l...4....a...a
	0x0020:  aaa5 d296 2327 5ccf 75db 0000 0000 6002  ....#'\.u.....`.
	0x0030:  0400 91b1 0000 0204 05b4                 ..........
21:04:01.124772 IP (tos 0x0, ttl 44, id 61786, offset 0, flags [none], proto TCP (6), length 44)
    10.97.3.165.53910 > 129.97.170.166.8999: Flags [S], cksum 0x91b0 (correct), seq 1557099995, win 1024, options [mss 1460], length 0
	0x0000:  ee7f f2bd d054 5ee9 a589 8efe 0800 4500  .....T^.......E.
	0x0010:  002c f15a 0000 2c06 6364 0a61 03a5 8161  .,.Z..,.cd.a...a
	0x0020:  aaa6 d296 2327 5ccf 75db 0000 0000 6002  ....#'\.u.....`.
	0x0030:  0400 91b0 0000 0204 05b4                 ..........
21:04:01.125293 IP (tos 0x0, ttl 54, id 59806, offset 0, flags [none], proto TCP (6), length 44)
    10.97.3.165.53910 > 129.97.170.167.8999: Flags [S], cksum 0x89af (correct), seq 1557099995, win 3072, options [mss 1460], length 0
	0x0000:  ee7f f2bd d054 5ee9 a589 8efe 0800 4500  .....T^.......E.
	0x0010:  002c e99e 0000 3606 611f 0a61 03a5 8161  .,....6.a..a...a
	0x0020:  aaa7 d296 2327 5ccf 75db 0000 0000 6002  ....#'\.u.....`.
	0x0030:  0c00 89af 0000 0204 05b4                 ..........
21:04:01.125811 IP (tos 0x0, ttl 43, id 25304, offset 0, flags [none], proto TCP (6), length 44)
    10.97.3.165.53910 > 129.97.170.168.8999: Flags [S], cksum 0x85ae (correct), seq 1557099995, win 4096, options [mss 1460], length 0
	0x0000:  ee7f f2bd d054 5ee9 a589 8efe 0800 4500  .....T^.......E.
	0x0010:  002c 62d8 0000 2b06 f2e4 0a61 03a5 8161  .,b...+....a...a
	0x0020:  aaa8 d296 2327 5ccf 75db 0000 0000 6002  ....#'\.u.....`.
	0x0030:  1000 85ae 0000 0204 05b4                 ..........
21:04:01.126172 IP (tos 0x0, ttl 61, id 58039, offset 0, flags [DF], proto TCP (6), length 40)
    129.97.170.168.8999 > 10.97.3.165.53910: Flags [R.], cksum 0xad57 (correct), seq 0, ack 1557099996, win 0, length 0
	0x0000:  5ee9 a589 8efe ee7f f2bd d054 0800 4500  ^..........T..E.
	0x0010:  0028 e2b7 4000 3d06 2109 8161 aaa8 0a61  .(..@.=.!..a...a
	0x0020:  03a5 2327 d296 0000 0000 5ccf 75dc 5014  ..#'......\.u.P.
	0x0030:  0000 ad57 0000                           ...W..
21:04:01.127008 IP (tos 0x0, ttl 38, id 33084, offset 0, flags [none], proto TCP (6), length 44)
    10.97.3.165.53910 > 129.97.170.169.8999: Flags [S], cksum 0x89ad (correct), seq 1557099995, win 3072, options [mss 1460], length 0
	0x0000:  ee7f f2bd d054 5ee9 a589 8efe 0800 4500  .....T^.......E.
	0x0010:  002c 813c 0000 2606 d97f 0a61 03a5 8161  .,.<..&....a...a
	0x0020:  aaa9 d296 2327 5ccf 75db 0000 0000 6002  ....#'\.u.....`.
	0x0030:  0c00 89ad 0000 0204 05b4                 ..........
21:04:01.127451 IP (tos 0x0, ttl 44, id 14722, offset 0, flags [none], proto TCP (6), length 44)
    10.97.3.165.53910 > 129.97.170.170.8999: Flags [S], cksum 0x91ac (correct), seq 1557099995, win 1024, options [mss 1460], length 0
	0x0000:  ee7f f2bd d054 5ee9 a589 8efe 0800 4500  .....T^.......E.
	0x0010:  002c 3982 0000 2c06 1b39 0a61 03a5 8161  .,9...,..9.a...a
	0x0020:  aaaa d296 2327 5ccf 75db 0000 0000 6002  ....#'\.u.....`.
	0x0030:  0400 91ac 0000 0204 05b4                 ..........
21:04:01.127513 IP (tos 0x0, ttl 125, id 14571, offset 0, flags [DF], proto TCP (6), length 40)
    129.97.170.169.8999 > 10.97.3.165.53910: Flags [R.], cksum 0xad56 (correct), seq 0, ack 1557099996, win 0, length 0
	0x0000:  5ee9 a589 8efe ee7f f2bd d054 0800 4500  ^..........T..E.
	0x0010:  0028 38eb 4000 7d06 8ad4 8161 aaa9 0a61  .(8.@.}....a...a
	0x0020:  03a5 2327 d296 0000 0000 5ccf 75dc 5014  ..#'......\.u.P.
	0x0030:  0000 ad56 0000                           ...V..
21:04:01.139636 IP (tos 0x0, ttl 45, id 1991, offset 0, flags [none], proto TCP (6), length 44)
    10.97.3.165.53910 > 129.97.170.160.8999: Flags [S], cksum 0x8db6 (correct), seq 1557099995, win 2048, options [mss 1460], length 0
	0x0000:  ee7f f2bd d054 5ee9 a589 8efe 0800 4500  .....T^.......E.
	0x0010:  002c 07c7 0000 2d06 4bfe 0a61 03a5 8161  .,....-.K..a...a
	0x0020:  aaa0 d296 2327 5ccf 75db 0000 0000 6002  ....#'\.u.....`.
	0x0030:  0800 8db6 0000 0204 05b4                 ..........
21:04:01.221814 IP (tos 0x0, ttl 59, id 20155, offset 0, flags [none], proto TCP (6), length 44)
    10.97.3.165.53911 > 129.97.170.161.8999: Flags [S], cksum 0x85b6 (correct), seq 1557034458, win 4096, options [mss 1460], length 0
	0x0000:  ee7f f2bd d054 5ee9 a589 8efe 0800 4500  .....T^.......E.
	0x0010:  002c 4ebb 0000 3b06 f708 0a61 03a5 8161  .,N...;....a...a
	0x0020:  aaa1 d297 2327 5cce 75da 0000 0000 6002  ....#'\.u.....`.
	0x0030:  1000 85b6 0000 0204 05b4                 ..........
21:04:01.232927 IP (tos 0x0, ttl 40, id 49258, offset 0, flags [none], proto TCP (6), length 44)
    10.97.3.165.53911 > 129.97.170.162.8999: Flags [S], cksum 0x91b5 (correct), seq 1557034458, win 1024, options [mss 1460], length 0
	0x0000:  ee7f f2bd d054 5ee9 a589 8efe 0800 4500  .....T^.......E.
	0x0010:  002c c06a 0000 2806 9858 0a61 03a5 8161  .,.j..(..X.a...a
	0x0020:  aaa2 d297 2327 5cce 75da 0000 0000 6002  ....#'\.u.....`.
	0x0030:  0400 91b5 0000 0204 05b4                 ..........
21:04:01.233483 IP (tos 0x0, ttl 39, id 9102, offset 0, flags [none], proto TCP (6), length 44)
    10.97.3.165.53911 > 129.97.170.163.8999: Flags [S], cksum 0x85b4 (correct), seq 1557034458, win 4096, options [mss 1460], length 0
	0x0000:  ee7f f2bd d054 5ee9 a589 8efe 0800 4500  .....T^.......E.
	0x0010:  002c 238e 0000 2706 3634 0a61 03a5 8161  .,#...'.64.a...a
	0x0020:  aaa3 d297 2327 5cce 75da 0000 0000 6002  ....#'\.u.....`.
	0x0030:  1000 85b4 0000 0204 05b4                 ..........
21:04:01.233907 IP (tos 0x0, ttl 58, id 48801, offset 0, flags [none], proto TCP (6), length 44)
    10.97.3.165.53911 > 129.97.170.164.8999: Flags [S], cksum 0x89b3 (correct), seq 1557034458, win 3072, options [mss 1460], length 0
	0x0000:  ee7f f2bd d054 5ee9 a589 8efe 0800 4500  .....T^.......E.
	0x0010:  002c bea1 0000 3a06 881f 0a61 03a5 8161  .,....:....a...a
	0x0020:  aaa4 d297 2327 5cce 75da 0000 0000 6002  ....#'\.u.....`.
	0x0030:  0c00 89b3 0000 0204 05b4                 ..........
21:04:01.234325 IP (tos 0x0, ttl 44, id 41016, offset 0, flags [none], proto TCP (6), length 44)
    10.97.3.165.53911 > 129.97.170.165.8999: Flags [S], cksum 0x91b2 (correct), seq 1557034458, win 1024, options [mss 1460], length 0
	0x0000:  ee7f f2bd d054 5ee9 a589 8efe 0800 4500  .....T^.......E.
	0x0010:  002c a038 0000 2c06 b487 0a61 03a5 8161  .,.8..,....a...a
	0x0020:  aaa5 d297 2327 5cce 75da 0000 0000 6002  ....#'\.u.....`.
	0x0030:  0400 91b2 0000 0204 05b4                 ..........
21:04:01.234745 IP (tos 0x0, ttl 44, id 48507, offset 0, flags [none], proto TCP (6), length 44)
    10.97.3.165.53911 > 129.97.170.166.8999: Flags [S], cksum 0x91b1 (correct), seq 1557034458, win 1024, options [mss 1460], length 0
	0x0000:  ee7f f2bd d054 5ee9 a589 8efe 0800 4500  .....T^.......E.
	0x0010:  002c bd7b 0000 2c06 9743 0a61 03a5 8161  .,.{..,..C.a...a
	0x0020:  aaa6 d297 2327 5cce 75da 0000 0000 6002  ....#'\.u.....`.
	0x0030:  0400 91b1 0000 0204 05b4                 ..........
21:04:01.235321 IP (tos 0x0, ttl 38, id 51830, offset 0, flags [none], proto TCP (6), length 44)
    10.97.3.165.53911 > 129.97.170.167.8999: Flags [S], cksum 0x89b0 (correct), seq 1557034458, win 3072, options [mss 1460], length 0
	0x0000:  ee7f f2bd d054 5ee9 a589 8efe 0800 4500  .....T^.......E.
	0x0010:  002c ca76 0000 2606 9047 0a61 03a5 8161  .,.v..&..G.a...a
	0x0020:  aaa7 d297 2327 5cce 75da 0000 0000 6002  ....#'\.u.....`.
	0x0030:  0c00 89b0 0000 0204 05b4                 ..........
21:04:01.235751 IP (tos 0x0, ttl 59, id 7046, offset 0, flags [none], proto TCP (6), length 44)
    10.97.3.165.53911 > 129.97.170.170.8999: Flags [S], cksum 0x85ad (correct), seq 1557034458, win 4096, options [mss 1460], length 0
	0x0000:  ee7f f2bd d054 5ee9 a589 8efe 0800 4500  .....T^.......E.
	0x0010:  002c 1b86 0000 3b06 2a35 0a61 03a5 8161  .,....;.*5.a...a
	0x0020:  aaaa d297 2327 5cce 75da 0000 0000 6002  ....#'\.u.....`.
	0x0030:  1000 85ad 0000 0204 05b4                 ..........
21:04:01.246779 IP (tos 0x0, ttl 52, id 33423, offset 0, flags [none], proto TCP (6), length 44)
    10.97.3.165.53911 > 129.97.170.160.8999: Flags [S], cksum 0x91b7 (correct), seq 1557034458, win 1024, options [mss 1460], length 0
	0x0000:  ee7f f2bd d054 5ee9 a589 8efe 0800 4500  .....T^.......E.
	0x0010:  002c 828f 0000 3406 ca35 0a61 03a5 8161  .,....4..5.a...a
	0x0020:  aaa0 d297 2327 5cce 75da 0000 0000 6002  ....#'\.u.....`.
	0x0030:  0400 91b7 0000 0204 05b4                 ..........
21:04:05.468360 IP (tos 0xc0, ttl 62, id 14680, offset 0, flags [none], proto ICMP (1), length 72)
    172.19.1.2 > 10.97.3.165: ICMP host 129.97.170.162 unreachable, length 52
	IP (tos 0x0, ttl 37, id 49258, offset 0, flags [none], proto TCP (6), length 44)
    10.97.3.165.53911 > 129.97.170.162.8999: Flags [S], cksum 0x91b5 (correct), seq 1557034458, win 1024, options [mss 1460], length 0
	0x0000:  5ee9 a589 8efe ee7f f2bd d054 0800 45c0  ^..........T..E.
	0x0010:  0048 3958 0000 3e01 8782 ac13 0102 0a61  .H9X..>........a
	0x0020:  03a5 0301 3727 0000 0000 4500 002c c06a  ....7'....E..,.j
	0x0030:  0000 2506 9b58 0a61 03a5 8161 aaa2 d297  ..%..X.a...a....
	0x0040:  2327 5cce 75da 0000 0000 6002 0400 91b5  #'\.u.....`.....
	0x0050:  0000 0204 05b4                           ......
21:04:05.969620 ARP, Ethernet (len 6), IPv4 (len 4), Request who-has 10.97.2.165 tell 10.97.3.165, length 28
	0x0000:  ee7f f2bd d054 5ee9 a589 8efe 0806 0001  .....T^.........
	0x0010:  0800 0604 0001 5ee9 a589 8efe 0a61 03a5  ......^......a..
	0x0020:  0000 0000 0000 0a61 02a5                 .......a..
21:04:05.969700 ARP, Ethernet (len 6), IPv4 (len 4), Reply 10.97.2.165 is-at ee:7f:f2:bd:d0:54, length 28
	0x0000:  5ee9 a589 8efe ee7f f2bd d054 0806 0001  ^..........T....
	0x0010:  0800 0604 0002 ee7f f2bd d054 0a61 02a5  ...........T.a..
	0x0020:  5ee9 a589 8efe 0a61 03a5                 ^......a..
21:04:06.477771 IP (tos 0xc0, ttl 62, id 14681, offset 0, flags [none], proto ICMP (1), length 72)
    172.19.1.2 > 10.97.3.165: ICMP host 129.97.170.163 unreachable, length 52
	IP (tos 0x0, ttl 36, id 9102, offset 0, flags [none], proto TCP (6), length 44)
    10.97.3.165.53911 > 129.97.170.163.8999: Flags [S], cksum 0x85b4 (correct), seq 1557034458, win 4096, options [mss 1460], length 0
	0x0000:  5ee9 a589 8efe ee7f f2bd d054 0800 45c0  ^..........T..E.
	0x0010:  0048 3959 0000 3e01 8781 ac13 0102 0a61  .H9Y..>........a
	0x0020:  03a5 0301 3728 0000 0000 4500 002c 238e  ....7(....E..,#.
	0x0030:  0000 2406 3934 0a61 03a5 8161 aaa3 d297  ..$.94.a...a....
	0x0040:  2327 5cce 75da 0000 0000 6002 1000 85b4  #'\.u.....`.....
	0x0050:  0000 0204 05b4                           ......
21:04:06.477784 IP (tos 0xc0, ttl 62, id 14682, offset 0, flags [none], proto ICMP (1), length 72)
    172.19.1.2 > 10.97.3.165: ICMP host 129.97.170.164 unreachable, length 52
	IP (tos 0x0, ttl 55, id 48801, offset 0, flags [none], proto TCP (6), length 44)
    10.97.3.165.53911 > 129.97.170.164.8999: Flags [S], cksum 0x89b3 (correct), seq 1557034458, win 3072, options [mss 1460], length 0
	0x0000:  5ee9 a589 8efe ee7f f2bd d054 0800 45c0  ^..........T..E.
	0x0010:  0048 395a 0000 3e01 8780 ac13 0102 0a61  .H9Z..>........a
	0x0020:  03a5 0301 3729 0000 0000 4500 002c bea1  ....7)....E..,..
	0x0030:  0000 3706 8b1f 0a61 03a5 8161 aaa4 d297  ..7....a...a....
	0x0040:  2327 5cce 75da 0000 0000 6002 0c00 89b3  #'\.u.....`.....
	0x0050:  0000 0204 05b4                           ......
21:04:06.477787 IP (tos 0xc0, ttl 62, id 14683, offset 0, flags [none], proto ICMP (1), length 72)
    172.19.1.2 > 10.97.3.165: ICMP host 129.97.170.166 unreachable, length 52
	IP (tos 0x0, ttl 41, id 48507, offset 0, flags [none], proto TCP (6), length 44)
    10.97.3.165.53911 > 129.97.170.166.8999: Flags [S], cksum 0x91b1 (correct), seq 1557034458, win 1024, options [mss 1460], length 0
	0x0000:  5ee9 a589 8efe ee7f f2bd d054 0800 45c0  ^..........T..E.
	0x0010:  0048 395b 0000 3e01 877f ac13 0102 0a61  .H9[..>........a
	0x0020:  03a5 0301 372b 0000 0000 4500 002c bd7b  ....7+....E..,.{
	0x0030:  0000 2906 9a43 0a61 03a5 8161 aaa6 d297  ..)..C.a...a....
	0x0040:  2327 5cce 75da 0000 0000 6002 0400 91b1  #'\.u.....`.....
	0x0050:  0000 0204 05b4                           ......
21:04:06.477789 IP (tos 0xc0, ttl 62, id 14684, offset 0, flags [none], proto ICMP (1), length 72)
    172.19.1.2 > 10.97.3.165: ICMP host 129.97.170.167 unreachable, length 52
	IP (tos 0x0, ttl 35, id 51830, offset 0, flags [none], proto TCP (6), length 44)
    10.97.3.165.53911 > 129.97.170.167.8999: Flags [S], cksum 0x89b0 (correct), seq 1557034458, win 3072, options [mss 1460], length 0
	0x0000:  5ee9 a589 8efe ee7f f2bd d054 0800 45c0  ^..........T..E.
	0x0010:  0048 395c 0000 3e01 877e ac13 0102 0a61  .H9\..>..~.....a
	0x0020:  03a5 0301 372c 0000 0000 4500 002c ca76  ....7,....E..,.v
	0x0030:  0000 2306 9347 0a61 03a5 8161 aaa7 d297  ..#..G.a...a....
	0x0040:  2327 5cce 75da 0000 0000 6002 0c00 89b0  #'\.u.....`.....
	0x0050:  0000 0204 05b4                           ......
21:04:06.477792 IP (tos 0xc0, ttl 62, id 14685, offset 0, flags [none], proto ICMP (1), length 72)
    172.19.1.2 > 10.97.3.165: ICMP host 129.97.170.170 unreachable, length 52
	IP (tos 0x0, ttl 56, id 7046, offset 0, flags [none], proto TCP (6), length 44)
    10.97.3.165.53911 > 129.97.170.170.8999: Flags [S], cksum 0x85ad (correct), seq 1557034458, win 4096, options [mss 1460], length 0
	0x0000:  5ee9 a589 8efe ee7f f2bd d054 0800 45c0  ^..........T..E.
	0x0010:  0048 395d 0000 3e01 877d ac13 0102 0a61  .H9]..>..}.....a
	0x0020:  03a5 0301 372f 0000 0000 4500 002c 1b86  ....7/....E..,..
	0x0030:  0000 3806 2d35 0a61 03a5 8161 aaaa d297  ..8.-5.a...a....
	0x0040:  2327 5cce 75da 0000 0000 6002 1000 85ad  #'\.u.....`.....
	0x0050:  0000 0204 05b4                           ......
21:04:07.681275 IP (tos 0x0, ttl 64, id 30996, offset 0, flags [DF], proto UDP (17), length 73)
    10.97.3.165.53439 > 129.97.129.10.53: [udp sum ok] 32093+ PTR? 160.170.97.129.in-addr.arpa. (45)
	0x0000:  ee7f f2bd d054 5ee9 a589 8efe 0800 4500  .....T^.......E.
	0x0010:  0049 7914 4000 4011 b11e 0a61 03a5 8161  .Iy.@.@....a...a
	0x0020:  810a d0bf 0035 0035 3c7b 7d5d 0100 0001  .....5.5<{}]....
	0x0030:  0000 0000 0000 0331 3630 0331 3730 0239  .......160.170.9
	0x0040:  3703 3132 3907 696e 2d61 6464 7204 6172  7.129.in-addr.ar
	0x0050:  7061 0000 0c00 01                        pa.....
21:04:07.682043 IP (tos 0x0, ttl 64, id 30996, offset 0, flags [DF], proto UDP (17), length 73)
    10.97.3.165.52059 > 129.97.2.1.53: [udp sum ok] 32094+ PTR? 161.170.97.129.in-addr.arpa. (45)
	0x0000:  ee7f f2bd d054 5ee9 a589 8efe 0800 4500  .....T^.......E.
	0x0010:  0049 7914 4000 4011 3028 0a61 03a5 8161  .Iy.@.@.0(.a...a
	0x0020:  0201 cb5b 0035 0035 c0e6 7d5e 0100 0001  ...[.5.5..}^....
	0x0030:  0000 0000 0000 0331 3631 0331 3730 0239  .......161.170.9
	0x0040:  3703 3132 3907 696e 2d61 6464 7204 6172  7.129.in-addr.ar
	0x0050:  7061 0000 0c00 01                        pa.....
21:04:07.682380 IP (tos 0x0, ttl 61, id 15291, offset 0, flags [none], proto UDP (17), length 111)
    129.97.2.1.53 > 10.97.3.165.52059: [udp sum ok] 32094 q: PTR? 161.170.97.129.in-addr.arpa. 1/0/0 161.170.97.129.in-addr.arpa. [2h30m43s] PTR scspc411.cs.uwaterloo.ca. (83)
	0x0000:  5ee9 a589 8efe ee7f f2bd d054 0800 4500  ^..........T..E.
	0x0010:  006f 3bbb 0000 3d11 b05b 8161 0201 0a61  .o;...=..[.a...a
	0x0020:  03a5 0035 cb5b 005b 4d56 7d5e 8180 0001  ...5.[.[MV}^....
	0x0030:  0001 0000 0000 0331 3631 0331 3730 0239  .......161.170.9
	0x0040:  3703 3132 3907 696e 2d61 6464 7204 6172  7.129.in-addr.ar
	0x0050:  7061 0000 0c00 01c0 0c00 0c00 0100 0023  pa.............#
	0x0060:  5300 1a08 7363 7370 6334 3131 0263 7309  S...scspc411.cs.
	0x0070:  7577 6174 6572 6c6f 6f02 6361 00         uwaterloo.ca.
21:04:07.682757 IP (tos 0x0, ttl 54, id 18195, offset 0, flags [none], proto UDP (17), length 111)
    129.97.129.10.53 > 10.97.3.165.53439: [udp sum ok] 32093 q: PTR? 160.170.97.129.in-addr.arpa. 1/0/0 160.170.97.129.in-addr.arpa. [2h30m43s] PTR scspc410.cs.uwaterloo.ca. (83)
	0x0000:  5ee9 a589 8efe ee7f f2bd d054 0800 4500  ^..........T..E.
	0x0010:  006f 4713 0000 3611 2cfa 8161 810a 0a61  .oG...6.,..a...a
	0x0020:  03a5 0035 d0bf 005b c8eb 7d5d 8180 0001  ...5...[..}]....
	0x0030:  0001 0000 0000 0331 3630 0331 3730 0239  .......160.170.9
	0x0040:  3703 3132 3907 696e 2d61 6464 7204 6172  7.129.in-addr.ar
	0x0050:  7061 0000 0c00 01c0 0c00 0c00 0100 0023  pa.............#
	0x0060:  5300 1a08 7363 7370 6334 3130 0263 7309  S...scspc410.cs.
	0x0070:  7577 6174 6572 6c6f 6f02 6361 00         uwaterloo.ca.
21:04:07.683979 IP (tos 0x0, ttl 64, id 30997, offset 0, flags [DF], proto UDP (17), length 73)
    10.97.3.165.53439 > 129.97.129.10.53: [udp sum ok] 32095+ PTR? 162.170.97.129.in-addr.arpa. (45)
	0x0000:  ee7f f2bd d054 5ee9 a589 8efe 0800 4500  .....T^.......E.
	0x0010:  0049 7915 4000 4011 b11d 0a61 03a5 8161  .Iy.@.@....a...a
	0x0020:  810a d0bf 0035 0035 3c77 7d5f 0100 0001  .....5.5<w}_....
	0x0030:  0000 0000 0000 0331 3632 0331 3730 0239  .......162.170.9
	0x0040:  3703 3132 3907 696e 2d61 6464 7204 6172  7.129.in-addr.ar
	0x0050:  7061 0000 0c00 01                        pa.....
21:04:07.684451 IP (tos 0x0, ttl 64, id 30997, offset 0, flags [DF], proto UDP (17), length 73)
    10.97.3.165.52059 > 129.97.2.1.53: [udp sum ok] 32096+ PTR? 163.170.97.129.in-addr.arpa. (45)
	0x0000:  ee7f f2bd d054 5ee9 a589 8efe 0800 4500  .....T^.......E.
	0x0010:  0049 7915 4000 4011 3027 0a61 03a5 8161  .Iy.@.@.0'.a...a
	0x0020:  0201 cb5b 0035 0035 c0e2 7d60 0100 0001  ...[.5.5..}`....
	0x0030:  0000 0000 0000 0331 3633 0331 3730 0239  .......163.170.9
	0x0040:  3703 3132 3907 696e 2d61 6464 7204 6172  7.129.in-addr.ar
	0x0050:  7061 0000 0c00 01                        pa.....
21:04:07.684738 IP (tos 0x0, ttl 61, id 15292, offset 0, flags [none], proto UDP (17), length 111)
    129.97.2.1.53 > 10.97.3.165.52059: [udp sum ok] 32096 q: PTR? 163.170.97.129.in-addr.arpa. 1/0/0 163.170.97.129.in-addr.arpa. [2h30m43s] PTR scspc413.cs.uwaterloo.ca. (83)
	0x0000:  5ee9 a589 8efe ee7f f2bd d054 0800 4500  ^..........T..E.
	0x0010:  006f 3bbc 0000 3d11 b05a 8161 0201 0a61  .o;...=..Z.a...a
	0x0020:  03a5 0035 cb5b 005b 4d50 7d60 8180 0001  ...5.[.[MP}`....
	0x0030:  0001 0000 0000 0331 3633 0331 3730 0239  .......163.170.9
	0x0040:  3703 3132 3907 696e 2d61 6464 7204 6172  7.129.in-addr.ar
	0x0050:  7061 0000 0c00 01c0 0c00 0c00 0100 0023  pa.............#
	0x0060:  5300 1a08 7363 7370 6334 3133 0263 7309  S...scspc413.cs.
	0x0070:  7577 6174 6572 6c6f 6f02 6361 00         uwaterloo.ca.
21:04:07.684741 IP (tos 0x0, ttl 54, id 18196, offset 0, flags [none], proto UDP (17), length 111)
    129.97.129.10.53 > 10.97.3.165.53439: [udp sum ok] 32095 q: PTR? 162.170.97.129.in-addr.arpa. 1/0/0 162.170.97.129.in-addr.arpa. [2h30m43s] PTR scspc412.cs.uwaterloo.ca. (83)
	0x0000:  5ee9 a589 8efe ee7f f2bd d054 0800 4500  ^..........T..E.
	0x0010:  006f 4714 0000 3611 2cf9 8161 810a 0a61  .oG...6.,..a...a
	0x0020:  03a5 0035 d0bf 005b c8e5 7d5f 8180 0001  ...5...[..}_....
	0x0030:  0001 0000 0000 0331 3632 0331 3730 0239  .......162.170.9
	0x0040:  3703 3132 3907 696e 2d61 6464 7204 6172  7.129.in-addr.ar
	0x0050:  7061 0000 0c00 01c0 0c00 0c00 0100 0023  pa.............#
	0x0060:  5300 1a08 7363 7370 6334 3132 0263 7309  S...scspc412.cs.
	0x0070:  7577 6174 6572 6c6f 6f02 6361 00         uwaterloo.ca.
21:04:07.686071 IP (tos 0x0, ttl 64, id 30998, offset 0, flags [DF], proto UDP (17), length 73)
    10.97.3.165.53439 > 129.97.129.10.53: [udp sum ok] 32097+ PTR? 164.170.97.129.in-addr.arpa. (45)
	0x0000:  ee7f f2bd d054 5ee9 a589 8efe 0800 4500  .....T^.......E.
	0x0010:  0049 7916 4000 4011 b11c 0a61 03a5 8161  .Iy.@.@....a...a
	0x0020:  810a d0bf 0035 0035 3c73 7d61 0100 0001  .....5.5<s}a....
	0x0030:  0000 0000 0000 0331 3634 0331 3730 0239  .......164.170.9
	0x0040:  3703 3132 3907 696e 2d61 6464 7204 6172  7.129.in-addr.ar
	0x0050:  7061 0000 0c00 01                        pa.....
21:04:07.686538 IP (tos 0x0, ttl 64, id 30998, offset 0, flags [DF], proto UDP (17), length 73)
    10.97.3.165.52059 > 129.97.2.1.53: [udp sum ok] 32098+ PTR? 165.170.97.129.in-addr.arpa. (45)
	0x0000:  ee7f f2bd d054 5ee9 a589 8efe 0800 4500  .....T^.......E.
	0x0010:  0049 7916 4000 4011 3026 0a61 03a5 8161  .Iy.@.@.0&.a...a
	0x0020:  0201 cb5b 0035 0035 c0de 7d62 0100 0001  ...[.5.5..}b....
	0x0030:  0000 0000 0000 0331 3635 0331 3730 0239  .......165.170.9
	0x0040:  3703 3132 3907 696e 2d61 6464 7204 6172  7.129.in-addr.ar
	0x0050:  7061 0000 0c00 01                        pa.....
21:04:07.686732 IP (tos 0x0, ttl 54, id 18197, offset 0, flags [none], proto UDP (17), length 111)
    129.97.129.10.53 > 10.97.3.165.53439: [udp sum ok] 32097 q: PTR? 164.170.97.129.in-addr.arpa. 1/0/0 164.170.97.129.in-addr.arpa. [2h30m43s] PTR scspc414.cs.uwaterloo.ca. (83)
	0x0000:  5ee9 a589 8efe ee7f f2bd d054 0800 4500  ^..........T..E.
	0x0010:  006f 4715 0000 3611 2cf8 8161 810a 0a61  .oG...6.,..a...a
	0x0020:  03a5 0035 d0bf 005b c8df 7d61 8180 0001  ...5...[..}a....
	0x0030:  0001 0000 0000 0331 3634 0331 3730 0239  .......164.170.9
	0x0040:  3703 3132 3907 696e 2d61 6464 7204 6172  7.129.in-addr.ar
	0x0050:  7061 0000 0c00 01c0 0c00 0c00 0100 0023  pa.............#
	0x0060:  5300 1a08 7363 7370 6334 3134 0263 7309  S...scspc414.cs.
	0x0070:  7577 6174 6572 6c6f 6f02 6361 00         uwaterloo.ca.
21:04:07.686977 IP (tos 0x0, ttl 61, id 15293, offset 0, flags [none], proto UDP (17), length 111)
    129.97.2.1.53 > 10.97.3.165.52059: [udp sum ok] 32098 q: PTR? 165.170.97.129.in-addr.arpa. 1/0/0 165.170.97.129.in-addr.arpa. [2h30m43s] PTR scspc415.cs.uwaterloo.ca. (83)
	0x0000:  5ee9 a589 8efe ee7f f2bd d054 0800 4500  ^..........T..E.
	0x0010:  006f 3bbd 0000 3d11 b059 8161 0201 0a61  .o;...=..Y.a...a
	0x0020:  03a5 0035 cb5b 005b 4d4a 7d62 8180 0001  ...5.[.[MJ}b....
	0x0030:  0001 0000 0000 0331 3635 0331 3730 0239  .......165.170.9
	0x0040:  3703 3132 3907 696e 2d61 6464 7204 6172  7.129.in-addr.ar
	0x0050:  7061 0000 0c00 01c0 0c00 0c00 0100 0023  pa.............#
	0x0060:  5300 1a08 7363 7370 6334 3135 0263 7309  S...scspc415.cs.
	0x0070:  7577 6174 6572 6c6f 6f02 6361 00         uwaterloo.ca.
21:04:07.688208 IP (tos 0x0, ttl 64, id 30999, offset 0, flags [DF], proto UDP (17), length 73)
    10.97.3.165.53439 > 129.97.129.10.53: [udp sum ok] 32099+ PTR? 166.170.97.129.in-addr.arpa. (45)
	0x0000:  ee7f f2bd d054 5ee9 a589 8efe 0800 4500  .....T^.......E.
	0x0010:  0049 7917 4000 4011 b11b 0a61 03a5 8161  .Iy.@.@....a...a
	0x0020:  810a d0bf 0035 0035 3c6f 7d63 0100 0001  .....5.5<o}c....
	0x0030:  0000 0000 0000 0331 3636 0331 3730 0239  .......166.170.9
	0x0040:  3703 3132 3907 696e 2d61 6464 7204 6172  7.129.in-addr.ar
	0x0050:  7061 0000 0c00 01                        pa.....
21:04:07.688669 IP (tos 0x0, ttl 64, id 30999, offset 0, flags [DF], proto UDP (17), length 73)
    10.97.3.165.52059 > 129.97.2.1.53: [udp sum ok] 32100+ PTR? 167.170.97.129.in-addr.arpa. (45)
	0x0000:  ee7f f2bd d054 5ee9 a589 8efe 0800 4500  .....T^.......E.
	0x0010:  0049 7917 4000 4011 3025 0a61 03a5 8161  .Iy.@.@.0%.a...a
	0x0020:  0201 cb5b 0035 0035 c0da 7d64 0100 0001  ...[.5.5..}d....
	0x0030:  0000 0000 0000 0331 3637 0331 3730 0239  .......167.170.9
	0x0040:  3703 3132 3907 696e 2d61 6464 7204 6172  7.129.in-addr.ar
	0x0050:  7061 0000 0c00 01                        pa.....
21:04:07.688975 IP (tos 0x0, ttl 61, id 15294, offset 0, flags [none], proto UDP (17), length 111)
    129.97.2.1.53 > 10.97.3.165.52059: [udp sum ok] 32100 q: PTR? 167.170.97.129.in-addr.arpa. 1/0/0 167.170.97.129.in-addr.arpa. [2h30m43s] PTR scspc417.cs.uwaterloo.ca. (83)
	0x0000:  5ee9 a589 8efe ee7f f2bd d054 0800 4500  ^..........T..E.
	0x0010:  006f 3bbe 0000 3d11 b058 8161 0201 0a61  .o;...=..X.a...a
	0x0020:  03a5 0035 cb5b 005b 4d44 7d64 8180 0001  ...5.[.[MD}d....
	0x0030:  0001 0000 0000 0331 3637 0331 3730 0239  .......167.170.9
	0x0040:  3703 3132 3907 696e 2d61 6464 7204 6172  7.129.in-addr.ar
	0x0050:  7061 0000 0c00 01c0 0c00 0c00 0100 0023  pa.............#
	0x0060:  5300 1a08 7363 7370 6334 3137 0263 7309  S...scspc417.cs.
	0x0070:  7577 6174 6572 6c6f 6f02 6361 00         uwaterloo.ca.
21:04:07.689043 IP (tos 0x0, ttl 54, id 18198, offset 0, flags [none], proto UDP (17), length 111)
    129.97.129.10.53 > 10.97.3.165.53439: [udp sum ok] 32099 q: PTR? 166.170.97.129.in-addr.arpa. 1/0/0 166.170.97.129.in-addr.arpa. [2h30m43s] PTR scspc416.cs.uwaterloo.ca. (83)
	0x0000:  5ee9 a589 8efe ee7f f2bd d054 0800 4500  ^..........T..E.
	0x0010:  006f 4716 0000 3611 2cf7 8161 810a 0a61  .oG...6.,..a...a
	0x0020:  03a5 0035 d0bf 005b c8d9 7d63 8180 0001  ...5...[..}c....
	0x0030:  0001 0000 0000 0331 3636 0331 3730 0239  .......166.170.9
	0x0040:  3703 3132 3907 696e 2d61 6464 7204 6172  7.129.in-addr.ar
	0x0050:  7061 0000 0c00 01c0 0c00 0c00 0100 0023  pa.............#
	0x0060:  5300 1a08 7363 7370 6334 3136 0263 7309  S...scspc416.cs.
	0x0070:  7577 6174 6572 6c6f 6f02 6361 00         uwaterloo.ca.
21:04:07.690324 IP (tos 0x0, ttl 64, id 31000, offset 0, flags [DF], proto UDP (17), length 73)
    10.97.3.165.53439 > 129.97.129.10.53: [udp sum ok] 32101+ PTR? 168.170.97.129.in-addr.arpa. (45)
	0x0000:  ee7f f2bd d054 5ee9 a589 8efe 0800 4500  .....T^.......E.
	0x0010:  0049 7918 4000 4011 b11a 0a61 03a5 8161  .Iy.@.@....a...a
	0x0020:  810a d0bf 0035 0035 3c6b 7d65 0100 0001  .....5.5<k}e....
	0x0030:  0000 0000 0000 0331 3638 0331 3730 0239  .......168.170.9
	0x0040:  3703 3132 3907 696e 2d61 6464 7204 6172  7.129.in-addr.ar
	0x0050:  7061 0000 0c00 01                        pa.....
21:04:07.690785 IP (tos 0x0, ttl 64, id 31000, offset 0, flags [DF], proto UDP (17), length 73)
    10.97.3.165.52059 > 129.97.2.1.53: [udp sum ok] 32102+ PTR? 169.170.97.129.in-addr.arpa. (45)
	0x0000:  ee7f f2bd d054 5ee9 a589 8efe 0800 4500  .....T^.......E.
	0x0010:  0049 7918 4000 4011 3024 0a61 03a5 8161  .Iy.@.@.0$.a...a
	0x0020:  0201 cb5b 0035 0035 c0d6 7d66 0100 0001  ...[.5.5..}f....
	0x0030:  0000 0000 0000 0331 3639 0331 3730 0239  .......169.170.9
	0x0040:  3703 3132 3907 696e 2d61 6464 7204 6172  7.129.in-addr.ar
	0x0050:  7061 0000 0c00 01                        pa.....
21:04:07.691070 IP (tos 0x0, ttl 54, id 18199, offset 0, flags [none], proto UDP (17), length 111)
    129.97.129.10.53 > 10.97.3.165.53439: [udp sum ok] 32101 q: PTR? 168.170.97.129.in-addr.arpa. 1/0/0 168.170.97.129.in-addr.arpa. [2h30m43s] PTR scspc418.cs.uwaterloo.ca. (83)
	0x0000:  5ee9 a589 8efe ee7f f2bd d054 0800 4500  ^..........T..E.
	0x0010:  006f 4717 0000 3611 2cf6 8161 810a 0a61  .oG...6.,..a...a
	0x0020:  03a5 0035 d0bf 005b c8d3 7d65 8180 0001  ...5...[..}e....
	0x0030:  0001 0000 0000 0331 3638 0331 3730 0239  .......168.170.9
	0x0040:  3703 3132 3907 696e 2d61 6464 7204 6172  7.129.in-addr.ar
	0x0050:  7061 0000 0c00 01c0 0c00 0c00 0100 0023  pa.............#
	0x0060:  5300 1a08 7363 7370 6334 3138 0263 7309  S...scspc418.cs.
	0x0070:  7577 6174 6572 6c6f 6f02 6361 00         uwaterloo.ca.
21:04:07.691094 IP (tos 0x0, ttl 61, id 15295, offset 0, flags [none], proto UDP (17), length 111)
    129.97.2.1.53 > 10.97.3.165.52059: [udp sum ok] 32102 q: PTR? 169.170.97.129.in-addr.arpa. 1/0/0 169.170.97.129.in-addr.arpa. [2h18m19s] PTR scspc419.cs.uwaterloo.ca. (83)
	0x0000:  5ee9 a589 8efe ee7f f2bd d054 0800 4500  ^..........T..E.
	0x0010:  006f 3bbf 0000 3d11 b057 8161 0201 0a61  .o;...=..W.a...a
	0x0020:  03a5 0035 cb5b 005b 3541 7d66 8180 0001  ...5.[.[5A}f....
	0x0030:  0001 0000 0000 0331 3639 0331 3730 0239  .......169.170.9
	0x0040:  3703 3132 3907 696e 2d61 6464 7204 6172  7.129.in-addr.ar
	0x0050:  7061 0000 0c00 01c0 0c00 0c00 0100 0020  pa..............
	0x0060:  6b00 1a08 7363 7370 6334 3139 0263 7309  k...scspc419.cs.
	0x0070:  7577 6174 6572 6c6f 6f02 6361 00         uwaterloo.ca.
21:04:07.692334 IP (tos 0x0, ttl 64, id 31001, offset 0, flags [DF], proto UDP (17), length 73)
    10.97.3.165.53439 > 129.97.129.10.53: [udp sum ok] 32103+ PTR? 170.170.97.129.in-addr.arpa. (45)
	0x0000:  ee7f f2bd d054 5ee9 a589 8efe 0800 4500  .....T^.......E.
	0x0010:  0049 7919 4000 4011 b119 0a61 03a5 8161  .Iy.@.@....a...a
	0x0020:  810a d0bf 0035 0035 3b71 7d67 0100 0001  .....5.5;q}g....
	0x0030:  0000 0000 0000 0331 3730 0331 3730 0239  .......170.170.9
	0x0040:  3703 3132 3907 696e 2d61 6464 7204 6172  7.129.in-addr.ar
	0x0050:  7061 0000 0c00 01                        pa.....
21:04:07.693135 IP (tos 0x0, ttl 54, id 18200, offset 0, flags [none], proto UDP (17), length 112)
    129.97.129.10.53 > 10.97.3.165.53439: [udp sum ok] 32103 q: PTR? 170.170.97.129.in-addr.arpa. 1/0/0 170.170.97.129.in-addr.arpa. [2h30m43s] PTR scsmac152.cs.uwaterloo.ca. (84)
	0x0000:  5ee9 a589 8efe ee7f f2bd d054 0800 4500  ^..........T..E.
	0x0010:  0070 4718 0000 3611 2cf4 8161 810a 0a61  .pG...6.,..a...a
	0x0020:  03a5 0035 d0bf 005c e95a 7d67 8180 0001  ...5...\.Z}g....
	0x0030:  0001 0000 0000 0331 3730 0331 3730 0239  .......170.170.9
	0x0040:  3703 3132 3907 696e 2d61 6464 7204 6172  7.129.in-addr.ar
	0x0050:  7061 0000 0c00 01c0 0c00 0c00 0100 0023  pa.............#
	0x0060:  5300 1b09 7363 736d 6163 3135 3202 6373  S...scsmac152.cs
	0x0070:  0975 7761 7465 726c 6f6f 0263 6100       .uwaterloo.ca.
21:04:07.810996 IP (tos 0x0, ttl 57, id 52676, offset 0, flags [none], proto UDP (17), length 28)
    10.97.3.165.56226 > 129.97.170.161.8999: [udp sum ok] UDP, length 0
	0x0000:  ee7f f2bd d054 5ee9 a589 8efe 0800 4500  .....T^.......E.
	0x0010:  001c cdc4 0000 3911 7a04 0a61 03a5 8161  ......9.z..a...a
	0x0020:  aaa1 dba2 2327 0008 c70b                 ....#'....
21:04:07.811555 IP (tos 0x0, ttl 50, id 50462, offset 0, flags [none], proto UDP (17), length 28)
    10.97.3.165.56226 > 129.97.170.162.8999: [udp sum ok] UDP, length 0
	0x0000:  ee7f f2bd d054 5ee9 a589 8efe 0800 4500  .....T^.......E.
	0x0010:  001c c51e 0000 3211 89a9 0a61 03a5 8161  ......2....a...a
	0x0020:  aaa2 dba2 2327 0008 c70a                 ....#'....
21:04:07.811941 IP (tos 0x0, ttl 46, id 62188, offset 0, flags [none], proto UDP (17), length 28)
    10.97.3.165.56226 > 129.97.170.163.8999: [udp sum ok] UDP, length 0
	0x0000:  ee7f f2bd d054 5ee9 a589 8efe 0800 4500  .....T^.......E.
	0x0010:  001c f2ec 0000 2e11 5fda 0a61 03a5 8161  ........_..a...a
	0x0020:  aaa3 dba2 2327 0008 c709                 ....#'....
21:04:07.812319 IP (tos 0x0, ttl 43, id 30391, offset 0, flags [none], proto UDP (17), length 28)
    10.97.3.165.56226 > 129.97.170.164.8999: [udp sum ok] UDP, length 0
	0x0000:  ee7f f2bd d054 5ee9 a589 8efe 0800 4500  .....T^.......E.
	0x0010:  001c 76b7 0000 2b11 df0e 0a61 03a5 8161  ..v...+....a...a
	0x0020:  aaa4 dba2 2327 0008 c708                 ....#'....
21:04:07.812691 IP (tos 0x0, ttl 44, id 724, offset 0, flags [none], proto UDP (17), length 28)
    10.97.3.165.56226 > 129.97.170.165.8999: [udp sum ok] UDP, length 0
	0x0000:  ee7f f2bd d054 5ee9 a589 8efe 0800 4500  .....T^.......E.
	0x0010:  001c 02d4 0000 2c11 51f1 0a61 03a5 8161  ......,.Q..a...a
	0x0020:  aaa5 dba2 2327 0008 c707                 ....#'....
21:04:07.813090 IP (tos 0x0, ttl 46, id 35694, offset 0, flags [none], proto UDP (17), length 28)
    10.97.3.165.56226 > 129.97.170.166.8999: [udp sum ok] UDP, length 0
	0x0000:  ee7f f2bd d054 5ee9 a589 8efe 0800 4500  .....T^.......E.
	0x0010:  001c 8b6e 0000 2e11 c755 0a61 03a5 8161  ...n.....U.a...a
	0x0020:  aaa6 dba2 2327 0008 c706                 ....#'....
21:04:07.813463 IP (tos 0x0, ttl 43, id 51030, offset 0, flags [none], proto UDP (17), length 28)
    10.97.3.165.56226 > 129.97.170.167.8999: [udp sum ok] UDP, length 0
	0x0000:  ee7f f2bd d054 5ee9 a589 8efe 0800 4500  .....T^.......E.
	0x0010:  001c c756 0000 2b11 8e6c 0a61 03a5 8161  ...V..+..l.a...a
	0x0020:  aaa7 dba2 2327 0008 c705                 ....#'....
21:04:07.813840 IP (tos 0x0, ttl 40, id 24281, offset 0, flags [none], proto UDP (17), length 28)
    10.97.3.165.56226 > 129.97.170.168.8999: [udp sum ok] UDP, length 0
	0x0000:  ee7f f2bd d054 5ee9 a589 8efe 0800 4500  .....T^.......E.
	0x0010:  001c 5ed9 0000 2811 f9e8 0a61 03a5 8161  ..^...(....a...a
	0x0020:  aaa8 dba2 2327 0008 c704                 ....#'....
21:04:07.814179 IP (tos 0xc0, ttl 61, id 22288, offset 0, flags [none], proto ICMP (1), length 56)
    129.97.170.168 > 10.97.3.165: ICMP 129.97.170.168 udp port 8999 unreachable, length 36
	IP (tos 0x0, ttl 37, id 24281, offset 0, flags [none], proto UDP (17), length 28)
    10.97.3.165.56226 > 129.97.170.168.8999: [udp sum ok] UDP, length 0
	0x0000:  5ee9 a589 8efe ee7f f2bd d054 0800 45c0  ^..........T..E.
	0x0010:  0038 5710 0000 3d01 ebe5 8161 aaa8 0a61  .8W...=....a...a
	0x0020:  03a5 0303 3726 0000 0000 4500 001c 5ed9  ....7&....E...^.
	0x0030:  0000 2511 fce8 0a61 03a5 8161 aaa8 dba2  ..%....a...a....
	0x0040:  2327 0008 c704                           #'....
21:04:07.814716 IP (tos 0x0, ttl 37, id 56030, offset 0, flags [none], proto UDP (17), length 28)
    10.97.3.165.56226 > 129.97.170.169.8999: [udp sum ok] UDP, length 0
	0x0000:  ee7f f2bd d054 5ee9 a589 8efe 0800 4500  .....T^.......E.
	0x0010:  001c dade 0000 2511 80e2 0a61 03a5 8161  ......%....a...a
	0x0020:  aaa9 dba2 2327 0008 c703                 ....#'....
21:04:07.814989 IP (tos 0x0, ttl 125, id 14574, offset 0, flags [none], proto ICMP (1), length 56)
    129.97.170.169 > 10.97.3.165: ICMP 129.97.170.169 udp port 8999 unreachable, length 36
	IP (tos 0x0, ttl 34, id 56030, offset 0, flags [none], proto UDP (17), length 28)
    10.97.3.165.56226 > 129.97.170.169.8999: [udp sum ok] UDP, length 0
	0x0000:  5ee9 a589 8efe ee7f f2bd d054 0800 4500  ^..........T..E.
	0x0010:  0038 38ee 0000 7d01 cac6 8161 aaa9 0a61  .88...}....a...a
	0x0020:  03a5 0303 3727 0000 0000 4500 001c dade  ....7'....E.....
	0x0030:  0000 2211 83e2 0a61 03a5 8161 aaa9 dba2  .."....a...a....
	0x0040:  2327 0008 c703                           #'....
21:04:07.815570 IP (tos 0x0, ttl 38, id 40498, offset 0, flags [none], proto UDP (17), length 28)
    10.97.3.165.56226 > 129.97.170.170.8999: [udp sum ok] UDP, length 0
	0x0000:  ee7f f2bd d054 5ee9 a589 8efe 0800 4500  .....T^.......E.
	0x0010:  001c 9e32 0000 2611 bc8d 0a61 03a5 8161  ...2..&....a...a
	0x0020:  aaaa dba2 2327 0008 c702                 ....#'....
21:04:07.827458 IP (tos 0x0, ttl 43, id 44981, offset 0, flags [none], proto UDP (17), length 28)
    10.97.3.165.56226 > 129.97.170.160.8999: [udp sum ok] UDP, length 0
	0x0000:  ee7f f2bd d054 5ee9 a589 8efe 0800 4500  .....T^.......E.
	0x0010:  001c afb5 0000 2b11 a614 0a61 03a5 8161  ......+....a...a
	0x0020:  aaa0 dba2 2327 0008 c70c                 ....#'....
21:04:07.919453 IP (tos 0x0, ttl 53, id 56292, offset 0, flags [none], proto UDP (17), length 28)
    10.97.3.165.56227 > 129.97.170.161.8999: [udp sum ok] UDP, length 0
	0x0000:  ee7f f2bd d054 5ee9 a589 8efe 0800 4500  .....T^.......E.
	0x0010:  001c dbe4 0000 3511 6fe4 0a61 03a5 8161  ......5.o..a...a
	0x0020:  aaa1 dba3 2327 0008 c70a                 ....#'....
21:04:07.919887 IP (tos 0x0, ttl 58, id 19863, offset 0, flags [none], proto UDP (17), length 28)
    10.97.3.165.56227 > 129.97.170.162.8999: [udp sum ok] UDP, length 0
	0x0000:  ee7f f2bd d054 5ee9 a589 8efe 0800 4500  .....T^.......E.
	0x0010:  001c 4d97 0000 3a11 f930 0a61 03a5 8161  ..M...:..0.a...a
	0x0020:  aaa2 dba3 2327 0008 c709                 ....#'....
21:04:07.920284 IP (tos 0x0, ttl 51, id 13040, offset 0, flags [none], proto UDP (17), length 28)
    10.97.3.165.56227 > 129.97.170.163.8999: [udp sum ok] UDP, length 0
	0x0000:  ee7f f2bd d054 5ee9 a589 8efe 0800 4500  .....T^.......E.
	0x0010:  001c 32f0 0000 3311 1ad7 0a61 03a5 8161  ..2...3....a...a
	0x0020:  aaa3 dba3 2327 0008 c708                 ....#'....
21:04:07.920648 IP (tos 0x0, ttl 56, id 54238, offset 0, flags [none], proto UDP (17), length 28)
    10.97.3.165.56227 > 129.97.170.164.8999: [udp sum ok] UDP, length 0
	0x0000:  ee7f f2bd d054 5ee9 a589 8efe 0800 4500  .....T^.......E.
	0x0010:  001c d3de 0000 3811 74e7 0a61 03a5 8161  ......8.t..a...a
	0x0020:  aaa4 dba3 2327 0008 c707                 ....#'....
21:04:07.921006 IP (tos 0x0, ttl 54, id 19341, offset 0, flags [none], proto UDP (17), length 28)
    10.97.3.165.56227 > 129.97.170.165.8999: [udp sum ok] UDP, length 0
	0x0000:  ee7f f2bd d054 5ee9 a589 8efe 0800 4500  .....T^.......E.
	0x0010:  001c 4b8d 0000 3611 ff37 0a61 03a5 8161  ..K...6..7.a...a
	0x0020:  aaa5 dba3 2327 0008 c706                 ....#'....
21:04:07.921367 IP (tos 0x0, ttl 57, id 18494, offset 0, flags [none], proto UDP (17), length 28)
    10.97.3.165.56227 > 129.97.170.166.8999: [udp sum ok] UDP, length 0
	0x0000:  ee7f f2bd d054 5ee9 a589 8efe 0800 4500  .....T^.......E.
	0x0010:  001c 483e 0000 3911 ff85 0a61 03a5 8161  ..H>..9....a...a
	0x0020:  aaa6 dba3 2327 0008 c705                 ....#'....
21:04:07.921730 IP (tos 0x0, ttl 45, id 20413, offset 0, flags [none], proto UDP (17), length 28)
    10.97.3.165.56227 > 129.97.170.167.8999: [udp sum ok] UDP, length 0
	0x0000:  ee7f f2bd d054 5ee9 a589 8efe 0800 4500  .....T^.......E.
	0x0010:  001c 4fbd 0000 2d11 0406 0a61 03a5 8161  ..O...-....a...a
	0x0020:  aaa7 dba3 2327 0008 c704                 ....#'....
21:04:07.922090 IP (tos 0x0, ttl 44, id 64825, offset 0, flags [none], proto UDP (17), length 28)
    10.97.3.165.56227 > 129.97.170.170.8999: [udp sum ok] UDP, length 0
	0x0000:  ee7f f2bd d054 5ee9 a589 8efe 0800 4500  .....T^.......E.
	0x0010:  001c fd39 0000 2c11 5786 0a61 03a5 8161  ...9..,.W..a...a
	0x0020:  aaaa dba3 2327 0008 c701                 ....#'....
21:04:07.933080 IP (tos 0x0, ttl 45, id 5435, offset 0, flags [none], proto UDP (17), length 28)
    10.97.3.165.56227 > 129.97.170.160.8999: [udp sum ok] UDP, length 0
	0x0000:  ee7f f2bd d054 5ee9 a589 8efe 0800 4500  .....T^.......E.
	0x0010:  001c 153b 0000 2d11 3e8f 0a61 03a5 8161  ...;..-.>..a...a
	0x0020:  aaa0 dba3 2327 0008 c70b                 ....#'....
21:04:11.476999 ARP, Ethernet (len 6), IPv4 (len 4), Request who-has 10.97.3.165 tell 10.97.2.165, length 28
	0x0000:  5ee9 a589 8efe ee7f f2bd d054 0806 0001  ^..........T....
	0x0010:  0800 0604 0001 ee7f f2bd d054 0a61 02a5  ...........T.a..
	0x0020:  0000 0000 0000 0a61 03a5                 .......a..
21:04:11.477013 ARP, Ethernet (len 6), IPv4 (len 4), Reply 10.97.3.165 is-at 5e:e9:a5:89:8e:fe, length 28
	0x0000:  ee7f f2bd d054 5ee9 a589 8efe 0806 0001  .....T^.........
	0x0010:  0800 0604 0002 5ee9 a589 8efe 0a61 03a5  ......^......a..
	0x0020:  ee7f f2bd d054 0a61 02a5                 .....T.a..
21:04:11.528820 IP (tos 0xc0, ttl 62, id 14690, offset 0, flags [none], proto ICMP (1), length 56)
    172.19.1.2 > 10.97.3.165: ICMP host 129.97.170.162 unreachable, length 36
	IP (tos 0x0, ttl 55, id 19863, offset 0, flags [none], proto UDP (17), length 28)
    10.97.3.165.56227 > 129.97.170.162.8999: [udp sum ok] UDP, length 0
	0x0000:  5ee9 a589 8efe ee7f f2bd d054 0800 45c0  ^..........T..E.
	0x0010:  0038 3962 0000 3e01 8788 ac13 0102 0a61  .89b..>........a
	0x0020:  03a5 0301 3722 0000 0000 4500 001c 4d97  ....7"....E...M.
	0x0030:  0000 3711 fc30 0a61 03a5 8161 aaa2 dba3  ..7..0.a...a....
	0x0040:  2327 0008 c709                           #'....
21:04:11.528833 IP (tos 0xc0, ttl 62, id 14691, offset 0, flags [none], proto ICMP (1), length 56)
    172.19.1.2 > 10.97.3.165: ICMP host 129.97.170.163 unreachable, length 36
	IP (tos 0x0, ttl 48, id 13040, offset 0, flags [none], proto UDP (17), length 28)
    10.97.3.165.56227 > 129.97.170.163.8999: [udp sum ok] UDP, length 0
	0x0000:  5ee9 a589 8efe ee7f f2bd d054 0800 45c0  ^..........T..E.
	0x0010:  0038 3963 0000 3e01 8787 ac13 0102 0a61  .89c..>........a
	0x0020:  03a5 0301 3723 0000 0000 4500 001c 32f0  ....7#....E...2.
	0x0030:  0000 3011 1dd7 0a61 03a5 8161 aaa3 dba3  ..0....a...a....
	0x0040:  2327 0008 c708                           #'....
21:04:11.528835 IP (tos 0xc0, ttl 62, id 14692, offset 0, flags [none], proto ICMP (1), length 56)
    172.19.1.2 > 10.97.3.165: ICMP host 129.97.170.164 unreachable, length 36
	IP (tos 0x0, ttl 53, id 54238, offset 0, flags [none], proto UDP (17), length 28)
    10.97.3.165.56227 > 129.97.170.164.8999: [udp sum ok] UDP, length 0
	0x0000:  5ee9 a589 8efe ee7f f2bd d054 0800 45c0  ^..........T..E.
	0x0010:  0038 3964 0000 3e01 8786 ac13 0102 0a61  .89d..>........a
	0x0020:  03a5 0301 3724 0000 0000 4500 001c d3de  ....7$....E.....
	0x0030:  0000 3511 77e7 0a61 03a5 8161 aaa4 dba3  ..5.w..a...a....
	0x0040:  2327 0008 c707                           #'....
21:04:11.528838 IP (tos 0xc0, ttl 62, id 14693, offset 0, flags [none], proto ICMP (1), length 56)
    172.19.1.2 > 10.97.3.165: ICMP host 129.97.170.166 unreachable, length 36
	IP (tos 0x0, ttl 54, id 18494, offset 0, flags [none], proto UDP (17), length 28)
    10.97.3.165.56227 > 129.97.170.166.8999: [udp sum ok] UDP, length 0
	0x0000:  5ee9 a589 8efe ee7f f2bd d054 0800 45c0  ^..........T..E.
	0x0010:  0038 3965 0000 3e01 8785 ac13 0102 0a61  .89e..>........a
	0x0020:  03a5 0301 3726 0000 0000 4500 001c 483e  ....7&....E...H>
	0x0030:  0000 3611 0286 0a61 03a5 8161 aaa6 dba3  ..6....a...a....
	0x0040:  2327 0008 c705                           #'....
21:04:11.528840 IP (tos 0xc0, ttl 62, id 14694, offset 0, flags [none], proto ICMP (1), length 56)
    172.19.1.2 > 10.97.3.165: ICMP host 129.97.170.167 unreachable, length 36
	IP (tos 0x0, ttl 42, id 20413, offset 0, flags [none], proto UDP (17), length 28)
    10.97.3.165.56227 > 129.97.170.167.8999: [udp sum ok] UDP, length 0
	0x0000:  5ee9 a589 8efe ee7f f2bd d054 0800 45c0  ^..........T..E.
	0x0010:  0038 3966 0000 3e01 8784 ac13 0102 0a61  .89f..>........a
	0x0020:  03a5 0301 3727 0000 0000 4500 001c 4fbd  ....7'....E...O.
	0x0030:  0000 2a11 0706 0a61 03a5 8161 aaa7 dba3  ..*....a...a....
	0x0040:  2327 0008 c704                           #'....

