21:04:00.977754 IP (tos 0x0, ttl 64, id 30327, offset 0, flags [DF], proto UDP (17), length 73)
    10.97.3.165.33378 > 129.97.129.10.53: [udp sum ok] 27323+ PTR? 160.170.97.129.in-addr.arpa. (45)
	0x0000:  ee7f f2bd d054 5ee9 a589 8efe 0800 4500  .....T^.......E.
	0x0010:  0049 7677 4000 4011 b3bb 0a61 03a5 8161  .Ivw@.@....a...a
	0x0020:  810a 8262 0035 0035 9d7a 6abb 0100 0001  ...b.5.5.zj.....
	0x0030:  0000 0000 0000 0331 3630 0331 3730 0239  .......160.170.9
	0x0040:  3703 3132 3907 696e 2d61 6464 7204 6172  7.129.in-addr.ar
	0x0050:  7061 0000 0c00 01                        pa.....
21:04:00.979325 IP (tos 0x0, ttl 54, id 18189, offset 0, flags [none], proto UDP (17), length 111)
    129.97.129.10.53 > 10.97.3.165.33378: [udp sum ok] 27323 q: PTR? 160.170.97.129.in-addr.arpa. 1/0/0 160.170.97.129.in-addr.arpa. [2h30m49s] PTR scspc410.cs.uwaterloo.ca. (83)
	0x0000:  5ee9 a589 8efe ee7f f2bd d054 0800 4500  ^..........T..E.
	0x0010:  006f 470d 0000 3611 2d00 8161 810a 0a61  .oG...6.-..a...a
	0x0020:  03a5 0035 8262 005b 23eb 6abb 8180 0001  ...5.b.[#.j.....
	0x0030:  0001 0000 0000 0331 3630 0331 3730 0239  .......160.170.9
	0x0040:  3703 3132 3907 696e 2d61 6464 7204 6172  7.129.in-addr.ar
	0x0050:  7061 0000 0c00 01c0 0c00 0c00 0100 0023  pa.............#
	0x0060:  5900 1a08 7363 7370 6334 3130 0263 7309  Y...scspc410.cs.
	0x0070:  7577 6174 6572 6c6f 6f02 6361 00         uwaterloo.ca.
21:04:00.981905 IP (tos 0x0, ttl 64, id 30327, offset 0, flags [DF], proto UDP (17), length 73)
    10.97.3.165.59551 > 129.97.2.1.53: [udp sum ok] 27324+ PTR? 161.170.97.129.in-addr.arpa. (45)
	0x0000:  ee7f f2bd d054 5ee9 a589 8efe 0800 4500  .....T^.......E.
	0x0010:  0049 7677 4000 4011 32c5 0a61 03a5 8161  .Ivw@.@.2..a...a
	0x0020:  0201 e89f 0035 0035 b644 6abc 0100 0001  .....5.5.Dj.....
	0x0030:  0000 0000 0000 0331 3631 0331 3730 0239  .......161.170.9
	0x0040:  3703 3132 3907 696e 2d61 6464 7204 6172  7.129.in-addr.ar
	0x0050:  7061 0000 0c00 01                        pa.....
21:04:00.982261 IP (tos 0x0, ttl 61, id 15286, offset 0, flags [none], proto UDP (17), length 111)
    129.97.2.1.53 > 10.97.3.165.59551: [udp sum ok] 27324 q: PTR? 161.170.97.129.in-addr.arpa. 1/0/0 161.170.97.129.in-addr.arpa. [2h30m49s] PTR scspc411.cs.uwaterloo.ca. (83)
	0x0000:  5ee9 a589 8efe ee7f f2bd d054 0800 4500  ^..........T..E.
	0x0010:  006f 3bb6 0000 3d11 b060 8161 0201 0a61  .o;...=..`.a...a
	0x0020:  03a5 0035 e89f 005b 3cb4 6abc 8180 0001  ...5...[<.j.....
	0x0030:  0001 0000 0000 0331 3631 0331 3730 0239  .......161.170.9
	0x0040:  3703 3132 3907 696e 2d61 6464 7204 6172  7.129.in-addr.ar
	0x0050:  7061 0000 0c00 01c0 0c00 0c00 0100 0023  pa.............#
	0x0060:  5900 1a08 7363 7370 6334 3131 0263 7309  Y...scspc411.cs.
	0x0070:  7577 6174 6572 6c6f 6f02 6361 00         uwaterloo.ca.
21:04:00.983395 IP (tos 0x0, ttl 64, id 30328, offset 0, flags [DF], proto UDP (17), length 73)
    10.97.3.165.33378 > 129.97.129.10.53: [udp sum ok] 27325+ PTR? 162.170.97.129.in-addr.arpa. (45)
	0x0000:  ee7f f2bd d054 5ee9 a589 8efe 0800 4500  .....T^.......E.
	0x0010:  0049 7678 4000 4011 b3ba 0a61 03a5 8161  .Ivx@.@....a...a
	0x0020:  810a 8262 0035 0035 9d76 6abd 0100 0001  ...b.5.5.vj.....
	0x0030:  0000 0000 0000 0331 3632 0331 3730 0239  .......162.170.9
	0x0040:  3703 3132 3907 696e 2d61 6464 7204 6172  7.129.in-addr.ar
	0x0050:  7061 0000 0c00 01                        pa.....
21:04:00.983965 IP (tos 0x0, ttl 64, id 30328, offset 0, flags [DF], proto UDP (17), length 73)
    10.97.3.165.59551 > 129.97.2.1.53: [udp sum ok] 27326+ PTR? 163.170.97.129.in-addr.arpa. (45)
	0x0000:  ee7f f2bd d054 5ee9 a589 8efe 0800 4500  .....T^.......E.
	0x0010:  0049 7678 4000 4011 32c4 0a61 03a5 8161  .Ivx@.@.2..a...a
	0x0020:  0201 e89f 0035 0035 b640 6abe 0100 0001  .....5.5.@j.....
	0x0030:  0000 0000 0000 0331 3633 0331 3730 0239  .......163.170.9
	0x0040:  3703 3132 3907 696e 2d61 6464 7204 6172  7.129.in-addr.ar
	0x0050:  7061 0000 0c00 01                        pa.....
21:04:00.984253 IP (tos 0x0, ttl 54, id 18190, offset 0, flags [none], proto UDP (17), length 111)
    129.97.129.10.53 > 10.97.3.165.33378: [udp sum ok] 27325 q: PTR? 162.170.97.129.in-addr.arpa. 1/0/0 162.170.97.129.in-addr.arpa. [2h30m49s] PTR scspc412.cs.uwaterloo.ca. (83)
	0x0000:  5ee9 a589 8efe ee7f f2bd d054 0800 4500  ^..........T..E.
	0x0010:  006f 470e 0000 3611 2cff 8161 810a 0a61  .oG...6.,..a...a
	0x0020:  03a5 0035 8262 005b 23e5 6abd 8180 0001  ...5.b.[#.j.....
	0x0030:  0001 0000 0000 0331 3632 0331 3730 0239  .......162.170.9
	0x0040:  3703 3132 3907 696e 2d61 6464 7204 6172  7.129.in-addr.ar
	0x0050:  7061 0000 0c00 01c0 0c00 0c00 0100 0023  pa.............#
	0x0060:  5900 1a08 7363 7370 6334 3132 0263 7309  Y...scspc412.cs.
	0x0070:  7577 6174 6572 6c6f 6f02 6361 00         uwaterloo.ca.
21:04:00.984346 IP (tos 0x0, ttl 61, id 15287, offset 0, flags [none], proto UDP (17), length 111)
    129.97.2.1.53 > 10.97.3.165.59551: [udp sum ok] 27326 q: PTR? 163.170.97.129.in-addr.arpa. 1/0/0 163.170.97.129.in-addr.arpa. [2h30m49s] PTR scspc413.cs.uwaterloo.ca. (83)
	0x0000:  5ee9 a589 8efe ee7f f2bd d054 0800 4500  ^..........T..E.
	0x0010:  006f 3bb7 0000 3d11 b05f 8161 0201 0a61  .o;...=.._.a...a
	0x0020:  03a5 0035 e89f 005b 3cae 6abe 8180 0001  ...5...[<.j.....
	0x0030:  0001 0000 0000 0331 3633 0331 3730 0239  .......163.170.9
	0x0040:  3703 3132 3907 696e 2d61 6464 7204 6172  7.129.in-addr.ar
	0x0050:  7061 0000 0c00 01c0 0c00 0c00 0100 0023  pa.............#
	0x0060:  5900 1a08 7363 7370 6334 3133 0263 7309  Y...scspc413.cs.
	0x0070:  7577 6174 6572 6c6f 6f02 6361 00         uwaterloo.ca.
21:04:00.985940 IP (tos 0x0, ttl 64, id 30329, offset 0, flags [DF], proto UDP (17), length 73)
    10.97.3.165.33378 > 129.97.129.10.53: [udp sum ok] 27327+ PTR? 164.170.97.129.in-addr.arpa. (45)
	0x0000:  ee7f f2bd d054 5ee9 a589 8efe 0800 4500  .....T^.......E.
	0x0010:  0049 7679 4000 4011 b3b9 0a61 03a5 8161  .Ivy@.@....a...a
	0x0020:  810a 8262 0035 0035 9d72 6abf 0100 0001  ...b.5.5.rj.....
	0x0030:  0000 0000 0000 0331 3634 0331 3730 0239  .......164.170.9
	0x0040:  3703 3132 3907 696e 2d61 6464 7204 6172  7.129.in-addr.ar
	0x0050:  7061 0000 0c00 01                        pa.....
21:04:00.986507 IP (tos 0x0, ttl 64, id 30329, offset 0, flags [DF], proto UDP (17), length 73)
    10.97.3.165.59551 > 129.97.2.1.53: [udp sum ok] 27328+ PTR? 165.170.97.129.in-addr.arpa. (45)
	0x0000:  ee7f f2bd d054 5ee9 a589 8efe 0800 4500  .....T^.......E.
	0x0010:  0049 7679 4000 4011 32c3 0a61 03a5 8161  .Ivy@.@.2..a...a
	0x0020:  0201 e89f 0035 0035 b63c 6ac0 0100 0001  .....5.5.<j.....
	0x0030:  0000 0000 0000 0331 3635 0331 3730 0239  .......165.170.9
	0x0040:  3703 3132 3907 696e 2d61 6464 7204 6172  7.129.in-addr.ar
	0x0050:  7061 0000 0c00 01                        pa.....
21:04:00.986897 IP (tos 0x0, ttl 54, id 18191, offset 0, flags [none], proto UDP (17), length 111)
    129.97.129.10.53 > 10.97.3.165.33378: [udp sum ok] 27327 q: PTR? 164.170.97.129.in-addr.arpa. 1/0/0 164.170.97.129.in-addr.arpa. [2h30m49s] PTR scspc414.cs.uwaterloo.ca. (83)
	0x0000:  5ee9 a589 8efe ee7f f2bd d054 0800 4500  ^..........T..E.
	0x0010:  006f 470f 0000 3611 2cfe 8161 810a 0a61  .oG...6.,..a...a
	0x0020:  03a5 0035 8262 005b 23df 6abf 8180 0001  ...5.b.[#.j.....
	0x0030:  0001 0000 0000 0331 3634 0331 3730 0239  .......164.170.9
	0x0040:  3703 3132 3907 696e 2d61 6464 7204 6172  7.129.in-addr.ar
	0x0050:  7061 0000 0c00 01c0 0c00 0c00 0100 0023  pa.............#
	0x0060:  5900 1a08 7363 7370 6334 3134 0263 7309  Y...scspc414.cs.
	0x0070:  7577 6174 6572 6c6f 6f02 6361 00         uwaterloo.ca.
21:04:00.986912 IP (tos 0x0, ttl 61, id 15288, offset 0, flags [none], proto UDP (17), length 111)
    129.97.2.1.53 > 10.97.3.165.59551: [udp sum ok] 27328 q: PTR? 165.170.97.129.in-addr.arpa. 1/0/0 165.170.97.129.in-addr.arpa. [2h30m49s] PTR scspc415.cs.uwaterloo.ca. (83)
	0x0000:  5ee9 a589 8efe ee7f f2bd d054 0800 4500  ^..........T..E.
	0x0010:  006f 3bb8 0000 3d11 b05e 8161 0201 0a61  .o;...=..^.a...a
	0x0020:  03a5 0035 e89f 005b 3ca8 6ac0 8180 0001  ...5...[<.j.....
	0x0030:  0001 0000 0000 0331 3635 0331 3730 0239  .......165.170.9
	0x0040:  3703 3132 3907 696e 2d61 6464 7204 6172  7.129.in-addr.ar
	0x0050:  7061 0000 0c00 01c0 0c00 0c00 0100 0023  pa.............#
	0x0060:  5900 1a08 7363 7370 6334 3135 0263 7309  Y...scspc415.cs.
	0x0070:  7577 6174 6572 6c6f 6f02 6361 00         uwaterloo.ca.
21:04:00.988618 IP (tos 0x0, ttl 64, id 30330, offset 0, flags [DF], proto UDP (17), length 73)
    10.97.3.165.33378 > 129.97.129.10.53: [udp sum ok] 27329+ PTR? 166.170.97.129.in-addr.arpa. (45)
	0x0000:  ee7f f2bd d054 5ee9 a589 8efe 0800 4500  .....T^.......E.
	0x0010:  0049 767a 4000 4011 b3b8 0a61 03a5 8161  .Ivz@.@....a...a
	0x0020:  810a 8262 0035 0035 9d6e 6ac1 0100 0001  ...b.5.5.nj.....
	0x0030:  0000 0000 0000 0331 3636 0331 3730 0239  .......166.170.9
	0x0040:  3703 3132 3907 696e 2d61 6464 7204 6172  7.129.in-addr.ar
	0x0050:  7061 0000 0c00 01                        pa.....
21:04:00.989199 IP (tos 0x0, ttl 64, id 30330, offset 0, flags [DF], proto UDP (17), length 73)
    10.97.3.165.59551 > 129.97.2.1.53: [udp sum ok] 27330+ PTR? 167.170.97.129.in-addr.arpa. (45)
	0x0000:  ee7f f2bd d054 5ee9 a589 8efe 0800 4500  .....T^.......E.
	0x0010:  0049 767a 4000 4011 32c2 0a61 03a5 8161  .Ivz@.@.2..a...a
	0x0020:  0201 e89f 0035 0035 b638 6ac2 0100 0001  .....5.5.8j.....
	0x0030:  0000 0000 0000 0331 3637 0331 3730 0239  .......167.170.9
	0x0040:  3703 3132 3907 696e 2d61 6464 7204 6172  7.129.in-addr.ar
	0x0050:  7061 0000 0c00 01                        pa.....
21:04:00.989578 IP (tos 0x0, ttl 54, id 18192, offset 0, flags [none], proto UDP (17), length 111)
    129.97.129.10.53 > 10.97.3.165.33378: [udp sum ok] 27329 q: PTR? 166.170.97.129.in-addr.arpa. 1/0/0 166.170.97.129.in-addr.arpa. [2h30m49s] PTR scspc416.cs.uwaterloo.ca. (83)
	0x0000:  5ee9 a589 8efe ee7f f2bd d054 0800 4500  ^..........T..E.
	0x0010:  006f 4710 0000 3611 2cfd 8161 810a 0a61  .oG...6.,..a...a
	0x0020:  03a5 0035 8262 005b 23d9 6ac1 8180 0001  ...5.b.[#.j.....
	0x0030:  0001 0000 0000 0331 3636 0331 3730 0239  .......166.170.9
	0x0040:  3703 3132 3907 696e 2d61 6464 7204 6172  7.129.in-addr.ar
	0x0050:  7061 0000 0c00 01c0 0c00 0c00 0100 0023  pa.............#
	0x0060:  5900 1a08 7363 7370 6334 3136 0263 7309  Y...scspc416.cs.
	0x0070:  7577 6174 6572 6c6f 6f02 6361 00         uwaterloo.ca.
21:04:00.989597 IP (tos 0x0, ttl 61, id 15289, offset 0, flags [none], proto UDP (17), length 111)
    129.97.2.1.53 > 10.97.3.165.59551: [udp sum ok] 27330 q: PTR? 167.170.97.129.in-addr.arpa. 1/0/0 167.170.97.129.in-addr.arpa. [2h30m49s] PTR scspc417.cs.uwaterloo.ca. (83)
	0x0000:  5ee9 a589 8efe ee7f f2bd d054 0800 4500  ^..........T..E.
	0x0010:  006f 3bb9 0000 3d11 b05d 8161 0201 0a61  .o;...=..].a...a
	0x0020:  03a5 0035 e89f 005b 3ca2 6ac2 8180 0001  ...5...[<.j.....
	0x0030:  0001 0000 0000 0331 3637 0331 3730 0239  .......167.170.9
	0x0040:  3703 3132 3907 696e 2d61 6464 7204 6172  7.129.in-addr.ar
	0x0050:  7061 0000 0c00 01c0 0c00 0c00 0100 0023  pa.............#
	0x0060:  5900 1a08 7363 7370 6334 3137 0263 7309  Y...scspc417.cs.
	0x0070:  7577 6174 6572 6c6f 6f02 6361 00         uwaterloo.ca.
21:04:00.991187 IP (tos 0x0, ttl 64, id 30331, offset 0, flags [DF], proto UDP (17), length 73)
    10.97.3.165.33378 > 129.97.129.10.53: [udp sum ok] 27331+ PTR? 168.170.97.129.in-addr.arpa. (45)
	0x0000:  ee7f f2bd d054 5ee9 a589 8efe 0800 4500  .....T^.......E.
	0x0010:  0049 767b 4000 4011 b3b7 0a61 03a5 8161  .Iv{@.@....a...a
	0x0020:  810a 8262 0035 0035 9d6a 6ac3 0100 0001  ...b.5.5.jj.....
	0x0030:  0000 0000 0000 0331 3638 0331 3730 0239  .......168.170.9
	0x0040:  3703 3132 3907 696e 2d61 6464 7204 6172  7.129.in-addr.ar
	0x0050:  7061 0000 0c00 01                        pa.....
21:04:00.991766 IP (tos 0x0, ttl 64, id 30331, offset 0, flags [DF], proto UDP (17), length 73)
    10.97.3.165.59551 > 129.97.2.1.53: [udp sum ok] 27332+ PTR? 169.170.97.129.in-addr.arpa. (45)
	0x0000:  ee7f f2bd d054 5ee9 a589 8efe 0800 4500  .....T^.......E.
	0x0010:  0049 767b 4000 4011 32c1 0a61 03a5 8161  .Iv{@.@.2..a...a
	0x0020:  0201 e89f 0035 0035 b634 6ac4 0100 0001  .....5.5.4j.....
	0x0030:  0000 0000 0000 0331 3639 0331 3730 0239  .......169.170.9
	0x0040:  3703 3132 3907 696e 2d61 6464 7204 6172  7.129.in-addr.ar
	0x0050:  7061 0000 0c00 01                        pa.....
21:04:00.991915 IP (tos 0x0, ttl 54, id 18193, offset 0, flags [none], proto UDP (17), length 111)
    129.97.129.10.53 > 10.97.3.165.33378: [udp sum ok] 27331 q: PTR? 168.170.97.129.in-addr.arpa. 1/0/0 168.170.97.129.in-addr.arpa. [2h30m49s] PTR scspc418.cs.uwaterloo.ca. (83)
	0x0000:  5ee9 a589 8efe ee7f f2bd d054 0800 4500  ^..........T..E.
	0x0010:  006f 4711 0000 3611 2cfc 8161 810a 0a61  .oG...6.,..a...a
	0x0020:  03a5 0035 8262 005b 23d3 6ac3 8180 0001  ...5.b.[#.j.....
	0x0030:  0001 0000 0000 0331 3638 0331 3730 0239  .......168.170.9
	0x0040:  3703 3132 3907 696e 2d61 6464 7204 6172  7.129.in-addr.ar
	0x0050:  7061 0000 0c00 01c0 0c00 0c00 0100 0023  pa.............#
	0x0060:  5900 1a08 7363 7370 6334 3138 0263 7309  Y...scspc418.cs.
	0x0070:  7577 6174 6572 6c6f 6f02 6361 00         uwaterloo.ca.
21:04:00.992258 IP (tos 0x0, ttl 61, id 15290, offset 0, flags [none], proto UDP (17), length 111)
    129.97.2.1.53 > 10.97.3.165.59551: [udp sum ok] 27332 q: PTR? 169.170.97.129.in-addr.arpa. 1/0/0 169.170.97.129.in-addr.arpa. [2h18m25s] PTR scspc419.cs.uwaterloo.ca. (83)
	0x0000:  5ee9 a589 8efe ee7f f2bd d054 0800 4500  ^..........T..E.
	0x0010:  006f 3bba 0000 3d11 b05c 8161 0201 0a61  .o;...=..\.a...a
	0x0020:  03a5 0035 e89f 005b 249f 6ac4 8180 0001  ...5...[$.j.....
	0x0030:  0001 0000 0000 0331 3639 0331 3730 0239  .......169.170.9
	0x0040:  3703 3132 3907 696e 2d61 6464 7204 6172  7.129.in-addr.ar
	0x0050:  7061 0000 0c00 01c0 0c00 0c00 0100 0020  pa..............
	0x0060:  7100 1a08 7363 7370 6334 3139 0263 7309  q...scspc419.cs.
	0x0070:  7577 6174 6572 6c6f 6f02 6361 00         uwaterloo.ca.
21:04:00.993778 IP (tos 0x0, ttl 64, id 30332, offset 0, flags [DF], proto UDP (17), length 73)
    10.97.3.165.33378 > 129.97.129.10.53: [udp sum ok] 27333+ PTR? 170.170.97.129.in-addr.arpa. (45)
	0x0000:  ee7f f2bd d054 5ee9 a589 8efe 0800 4500  .....T^.......E.
	0x0010:  0049 767c 4000 4011 b3b6 0a61 03a5 8161  .Iv|@.@....a...a
	0x0020:  810a 8262 0035 0035 9c70 6ac5 0100 0001  ...b.5.5.pj.....
	0x0030:  0000 0000 0000 0331 3730 0331 3730 0239  .......170.170.9
	0x0040:  3703 3132 3907 696e 2d61 6464 7204 6172  7.129.in-addr.ar
	0x0050:  7061 0000 0c00 01                        pa.....
21:04:00.994611 IP (tos 0x0, ttl 54, id 18194, offset 0, flags [none], proto UDP (17), length 112)
    129.97.129.10.53 > 10.97.3.165.33378: [udp sum ok] 27333 q: PTR? 170.170.97.129.in-addr.arpa. 1/0/0 170.170.97.129.in-addr.arpa. [2h30m49s] PTR scsmac152.cs.uwaterloo.ca. (84)
	0x0000:  5ee9 a589 8efe ee7f f2bd d054 0800 4500  ^..........T..E.
	0x0010:  0070 4712 0000 3611 2cfa 8161 810a 0a61  .pG...6.,..a...a
	0x0020:  03a5 0035 8262 005c 445a 6ac5 8180 0001  ...5.b.\DZj.....
	0x0030:  0001 0000 0000 0331 3730 0331 3730 0239  .......170.170.9
	0x0040:  3703 3132 3907 696e 2d61 6464 7204 6172  7.129.in-addr.ar
	0x0050:  7061 0000 0c00 01c0 0c00 0c00 0100 0023  pa.............#
	0x0060:  5900 1b09 7363 736d 6163 3135 3202 6373  Y...scsmac152.cs
	0x0070:  0975 7761 7465 726c 6f6f 0263 6100       .uwaterloo.ca.